{
  "contractName": "AidPackageDistribution",
  "abi": [
    {
      "anonymous": false,
      "inputs": [
        {
          "indexed": false,
          "internalType": "address",
          "name": "sender",
          "type": "address"
        },
        {
          "indexed": false,
          "internalType": "string",
          "name": "recipient",
          "type": "string"
        },
        {
          "indexed": false,
          "internalType": "string",
          "name": "packageDetails",
          "type": "string"
        },
        {
          "indexed": false,
          "internalType": "string",
          "name": "sourceLocation",
          "type": "string"
        },
        {
          "indexed": false,
          "internalType": "string",
          "name": "destinationLocation",
          "type": "string"
        }
      ],
      "name": "AidPackageCreated",
      "type": "event"
    },
    {
      "anonymous": false,
      "inputs": [
        {
          "indexed": false,
          "internalType": "uint256",
          "name": "packageId",
          "type": "uint256"
        }
      ],
      "name": "AidPackageDelivered",
      "type": "event"
    },
    {
      "inputs": [
        {
          "internalType": "uint256",
          "name": "",
          "type": "uint256"
        }
      ],
      "name": "aidPackages",
      "outputs": [
        {
          "internalType": "address",
          "name": "sender",
          "type": "address"
        },
        {
          "internalType": "string",
          "name": "recipient",
          "type": "string"
        },
        {
          "internalType": "string",
          "name": "packageDetails",
          "type": "string"
        },
        {
          "internalType": "string",
          "name": "sourceLocation",
          "type": "string"
        },
        {
          "internalType": "string",
          "name": "destinationLocation",
          "type": "string"
        },
        {
          "internalType": "bool",
          "name": "delivered",
          "type": "bool"
        }
      ],
      "stateMutability": "view",
      "type": "function",
      "constant": true
    },
    {
      "inputs": [],
      "name": "totalAidPackages",
      "outputs": [
        {
          "internalType": "uint256",
          "name": "",
          "type": "uint256"
        }
      ],
      "stateMutability": "view",
      "type": "function",
      "constant": true
    },
    {
      "inputs": [
        {
          "internalType": "string",
          "name": "_recipient",
          "type": "string"
        },
        {
          "internalType": "string",
          "name": "_packageDetails",
          "type": "string"
        },
        {
          "internalType": "string",
          "name": "_sourceLocation",
          "type": "string"
        },
        {
          "internalType": "string",
          "name": "_destinationLocation",
          "type": "string"
        }
      ],
      "name": "createAidPackage",
      "outputs": [],
      "stateMutability": "nonpayable",
      "type": "function"
    },
    {
      "inputs": [
        {
          "internalType": "uint256",
          "name": "_packageId",
          "type": "uint256"
        }
      ],
      "name": "markAidPackageDelivered",
      "outputs": [],
      "stateMutability": "nonpayable",
      "type": "function"
    }
  ],
  "bytecode": "0x608060405234801561001057600080fd5b50610f4e806100206000396000f3fe608060405234801561001057600080fd5b506004361061004c5760003560e01c80630683a0cf146100515780631764dc771461006f5780633ff61928146100a4578063f8293764146100c0575b600080fd5b6100596100dc565b6040516100669190610659565b60405180910390f35b610089600480360381019061008491906106b4565b6100e2565b60405161009b969594939291906107cd565b60405180910390f35b6100be60048036038101906100b991906106b4565b61036b565b005b6100da60048036038101906100d5919061097f565b6104c7565b005b60015481565b60006020528060005260406000206000915090508060000160009054906101000a900473ffffffffffffffffffffffffffffffffffffffff169080600101805461012b90610a85565b80601f016020809104026020016040519081016040528092919081815260200182805461015790610a85565b80156101a45780601f10610179576101008083540402835291602001916101a4565b820191906000526020600020905b81548152906001019060200180831161018757829003601f168201915b5050505050908060020180546101b990610a85565b80601f01602080910402602001604051908101604052809291908181526020018280546101e590610a85565b80156102325780601f1061020757610100808354040283529160200191610232565b820191906000526020600020905b81548152906001019060200180831161021557829003601f168201915b50505050509080600301805461024790610a85565b80601f016020809104026020016040519081016040528092919081815260200182805461027390610a85565b80156102c05780601f10610295576101008083540402835291602001916102c0565b820191906000526020600020905b8154815290600101906020018083116102a357829003601f168201915b5050505050908060040180546102d590610a85565b80601f016020809104026020016040519081016040528092919081815260200182805461030190610a85565b801561034e5780601f106103235761010080835404028352916020019161034e565b820191906000526020600020905b81548152906001019060200180831161033157829003601f168201915b5050505050908060050160009054906101000a900460ff16905086565b60008111801561037d57506001548111155b6103bc576040517f08c379a00000000000000000000000000000000000000000000000000000000081526004016103b390610b02565b60405180910390fd5b3373ffffffffffffffffffffffffffffffffffffffff1660008083815260200190815260200160002060000160009054906101000a900473ffffffffffffffffffffffffffffffffffffffff1673ffffffffffffffffffffffffffffffffffffffff161461045f576040517f08c379a000000000000000000000000000000000000000000000000000000000815260040161045690610b94565b60405180910390fd5b600160008083815260200190815260200160002060050160006101000a81548160ff0219169083151502179055507ff09f2c96952f501c309f0a427978850fc2d950b3241ee47ac54c97c6ee0d5dc8816040516104bc9190610659565b60405180910390a150565b600160008154809291906104da90610be3565b91905055506040518060c001604052803373ffffffffffffffffffffffffffffffffffffffff16815260200185815260200184815260200183815260200182815260200160001515815250600080600154815260200190815260200160002060008201518160000160006101000a81548173ffffffffffffffffffffffffffffffffffffffff021916908373ffffffffffffffffffffffffffffffffffffffff16021790555060208201518160010190816105959190610dd7565b5060408201518160020190816105ab9190610dd7565b5060608201518160030190816105c19190610dd7565b5060808201518160040190816105d79190610dd7565b5060a08201518160050160006101000a81548160ff0219169083151502179055509050507fcd5f4522eef73ef935a04d6f7e434f8a3e461260716b76efc0393d6b99f4be033385858585604051610632959493929190610ea9565b60405180910390a150505050565b6000819050919050565b61065381610640565b82525050565b600060208201905061066e600083018461064a565b92915050565b6000604051905090565b600080fd5b600080fd5b61069181610640565b811461069c57600080fd5b50565b6000813590506106ae81610688565b92915050565b6000602082840312156106ca576106c961067e565b5b60006106d88482850161069f565b91505092915050565b600073ffffffffffffffffffffffffffffffffffffffff82169050919050565b600061070c826106e1565b9050919050565b61071c81610701565b82525050565b600081519050919050565b600082825260208201905092915050565b60005b8381101561075c578082015181840152602081019050610741565b60008484015250505050565b6000601f19601f8301169050919050565b600061078482610722565b61078e818561072d565b935061079e81856020860161073e565b6107a781610768565b840191505092915050565b60008115159050919050565b6107c7816107b2565b82525050565b600060c0820190506107e26000830189610713565b81810360208301526107f48188610779565b905081810360408301526108088187610779565b9050818103606083015261081c8186610779565b905081810360808301526108308185610779565b905061083f60a08301846107be565b979650505050505050565b600080fd5b600080fd5b7f4e487b7100000000000000000000000000000000000000000000000000000000600052604160045260246000fd5b61088c82610768565b810181811067ffffffffffffffff821117156108ab576108aa610854565b5b80604052505050565b60006108be610674565b90506108ca8282610883565b919050565b600067ffffffffffffffff8211156108ea576108e9610854565b5b6108f382610768565b9050602081019050919050565b82818337600083830152505050565b600061092261091d846108cf565b6108b4565b90508281526020810184848401111561093e5761093d61084f565b5b610949848285610900565b509392505050565b600082601f8301126109665761096561084a565b5b813561097684826020860161090f565b91505092915050565b600080600080608085870312156109995761099861067e565b5b600085013567ffffffffffffffff8111156109b7576109b6610683565b5b6109c387828801610951565b945050602085013567ffffffffffffffff8111156109e4576109e3610683565b5b6109f087828801610951565b935050604085013567ffffffffffffffff811115610a1157610a10610683565b5b610a1d87828801610951565b925050606085013567ffffffffffffffff811115610a3e57610a3d610683565b5b610a4a87828801610951565b91505092959194509250565b7f4e487b7100000000000000000000000000000000000000000000000000000000600052602260045260246000fd5b60006002820490506001821680610a9d57607f821691505b602082108103610ab057610aaf610a56565b5b50919050565b7f496e76616c6964207061636b6167652049440000000000000000000000000000600082015250565b6000610aec60128361072d565b9150610af782610ab6565b602082019050919050565b60006020820190508181036000830152610b1b81610adf565b9050919050565b7f4f6e6c79207468652073656e6465722063616e206d61726b2061732064656c6960008201527f7665726564000000000000000000000000000000000000000000000000000000602082015250565b6000610b7e60258361072d565b9150610b8982610b22565b604082019050919050565b60006020820190508181036000830152610bad81610b71565b9050919050565b7f4e487b7100000000000000000000000000000000000000000000000000000000600052601160045260246000fd5b6000610bee82610640565b91507fffffffffffffffffffffffffffffffffffffffffffffffffffffffffffffffff8203610c2057610c1f610bb4565b5b600182019050919050565b60008190508160005260206000209050919050565b60006020601f8301049050919050565b600082821b905092915050565b600060088302610c8d7fffffffffffffffffffffffffffffffffffffffffffffffffffffffffffffffff82610c50565b610c978683610c50565b95508019841693508086168417925050509392505050565b6000819050919050565b6000610cd4610ccf610cca84610640565b610caf565b610640565b9050919050565b6000819050919050565b610cee83610cb9565b610d02610cfa82610cdb565b848454610c5d565b825550505050565b600090565b610d17610d0a565b610d22818484610ce5565b505050565b5b81811015610d4657610d3b600082610d0f565b600181019050610d28565b5050565b601f821115610d8b57610d5c81610c2b565b610d6584610c40565b81016020851015610d74578190505b610d88610d8085610c40565b830182610d27565b50505b505050565b600082821c905092915050565b6000610dae60001984600802610d90565b1980831691505092915050565b6000610dc78383610d9d565b9150826002028217905092915050565b610de082610722565b67ffffffffffffffff811115610df957610df8610854565b5b610e038254610a85565b610e0e828285610d4a565b600060209050601f831160018114610e415760008415610e2f578287015190505b610e398582610dbb565b865550610ea1565b601f198416610e4f86610c2b565b60005b82811015610e7757848901518255600182019150602085019450602081019050610e52565b86831015610e945784890151610e90601f891682610d9d565b8355505b6001600288020188555050505b505050505050565b600060a082019050610ebe6000830188610713565b8181036020830152610ed08187610779565b90508181036040830152610ee48186610779565b90508181036060830152610ef88185610779565b90508181036080830152610f0c8184610779565b9050969550505050505056fea2646970667358221220381d050e0c13d77348329637880686215b45b6bcb2ae90905fa73f155800597364736f6c63430008130033",
  "immutableReferences": {},
  "source": "// SPDX-License-Identifier: MIT\r\npragma solidity ^0.8.19;\r\n\r\ncontract AidPackageDistribution {\r\n    // Structure to store information about an aid package\r\n    struct AidPackage {\r\n        address sender;\r\n        string recipient;\r\n        string packageDetails;\r\n        string sourceLocation;\r\n        string destinationLocation;\r\n        bool delivered;\r\n    }\r\n\r\n    // Mapping to store aid packages\r\n    mapping(uint256 => AidPackage) public aidPackages;\r\n\r\n    uint256 public totalAidPackages;\r\n\r\n    // Event to log when a new aid package is created\r\n    event AidPackageCreated(\r\n        address sender,\r\n        string recipient,\r\n        string packageDetails,\r\n        string sourceLocation,\r\n        string destinationLocation\r\n    );\r\n\r\n    // Event to log when an aid package is marked as delivered\r\n    event AidPackageDelivered(uint256 packageId);\r\n\r\n    // Function to create a new aid package\r\n    function createAidPackage(\r\n        string memory _recipient,\r\n        string memory _packageDetails,\r\n        string memory _sourceLocation,\r\n        string memory _destinationLocation\r\n    ) public {\r\n        totalAidPackages++;\r\n        aidPackages[totalAidPackages] = AidPackage(\r\n            msg.sender,\r\n            _recipient,\r\n            _packageDetails,\r\n            _sourceLocation,\r\n            _destinationLocation,\r\n            false\r\n        );\r\n\r\n        emit AidPackageCreated(msg.sender, _recipient, _packageDetails, _sourceLocation, _destinationLocation);\r\n    }\r\n\r\n    // Function to mark an aid package as delivered\r\n    function markAidPackageDelivered(uint256 _packageId) public {\r\n        require(_packageId > 0 && _packageId <= totalAidPackages, \"Invalid package ID\");\r\n        require(aidPackages[_packageId].sender == msg.sender, \"Only the sender can mark as delivered\");\r\n\r\n        aidPackages[_packageId].delivered = true;\r\n\r\n        emit AidPackageDelivered(_packageId);\r\n    }\r\n}",
  "sourcePath": "D:\\Project_Test\\web\\contracts\\AidPackageDistribution.sol",
  "compiler": {
    "name": "solc",
    "version": "0.8.19+commit.7dd6d404.Emscripten.clang"
  },
  "schemaVersion": "3.4.16",
  "updatedAt": "2024-05-26T09:48:37.392Z",
  "networkType": "ethereum",
  "devdoc": {
    "kind": "dev",
    "methods": {},
    "version": 1
  },
  "userdoc": {
    "kind": "user",
    "methods": {},
    "version": 1
  }
}