{
  "contractName": "ContinuousMonitoringAndImprovement",
  "abi": [
    {
      "inputs": [],
      "stateMutability": "nonpayable",
      "type": "constructor"
    },
    {
      "anonymous": false,
      "inputs": [
        {
          "indexed": false,
          "internalType": "string",
          "name": "improvementDescription",
          "type": "string"
        }
      ],
      "name": "ImprovementIdentified",
      "type": "event"
    },
    {
      "anonymous": false,
      "inputs": [
        {
          "indexed": false,
          "internalType": "string",
          "name": "feedback",
          "type": "string"
        }
      ],
      "name": "UserFeedbackReceived",
      "type": "event"
    },
    {
      "inputs": [],
      "name": "owner",
      "outputs": [
        {
          "internalType": "address",
          "name": "",
          "type": "address"
        }
      ],
      "stateMutability": "view",
      "type": "function",
      "constant": true
    },
    {
      "inputs": [
        {
          "internalType": "string",
          "name": "improvementDescription",
          "type": "string"
        }
      ],
      "name": "identifyImprovement",
      "outputs": [],
      "stateMutability": "nonpayable",
      "type": "function"
    },
    {
      "inputs": [
        {
          "internalType": "string",
          "name": "feedback",
          "type": "string"
        }
      ],
      "name": "collectUserFeedback",
      "outputs": [],
      "stateMutability": "nonpayable",
      "type": "function"
    }
  ],
  "bytecode": "0x608060405234801561001057600080fd5b50336000806101000a81548173ffffffffffffffffffffffffffffffffffffffff021916908373ffffffffffffffffffffffffffffffffffffffff16021790555061052a806100606000396000f3fe608060405234801561001057600080fd5b50600436106100415760003560e01c80632ff47f2a146100465780637e7874a8146100625780638da5cb5b1461007e575b600080fd5b610060600480360381019061005b919061031c565b61009c565b005b61007c6004803603810190610077919061031c565b610164565b005b61008661019e565b60405161009391906103a6565b60405180910390f35b60008054906101000a900473ffffffffffffffffffffffffffffffffffffffff1673ffffffffffffffffffffffffffffffffffffffff163373ffffffffffffffffffffffffffffffffffffffff161461012a576040517f08c379a000000000000000000000000000000000000000000000000000000000815260040161012190610444565b60405180910390fd5b7f115a21e57ed617727ce0e689687d7209900106f88939623533c422d192a5da4f8160405161015991906104d2565b60405180910390a150565b7f8985ce48142ec2d144d3348bf2c1108659d33875740c5cca0b32427e40cde6338160405161019391906104d2565b60405180910390a150565b60008054906101000a900473ffffffffffffffffffffffffffffffffffffffff1681565b6000604051905090565b600080fd5b600080fd5b600080fd5b600080fd5b6000601f19601f8301169050919050565b7f4e487b7100000000000000000000000000000000000000000000000000000000600052604160045260246000fd5b610229826101e0565b810181811067ffffffffffffffff82111715610248576102476101f1565b5b80604052505050565b600061025b6101c2565b90506102678282610220565b919050565b600067ffffffffffffffff821115610287576102866101f1565b5b610290826101e0565b9050602081019050919050565b82818337600083830152505050565b60006102bf6102ba8461026c565b610251565b9050828152602081018484840111156102db576102da6101db565b5b6102e684828561029d565b509392505050565b600082601f830112610303576103026101d6565b5b81356103138482602086016102ac565b91505092915050565b600060208284031215610332576103316101cc565b5b600082013567ffffffffffffffff8111156103505761034f6101d1565b5b61035c848285016102ee565b91505092915050565b600073ffffffffffffffffffffffffffffffffffffffff82169050919050565b600061039082610365565b9050919050565b6103a081610385565b82525050565b60006020820190506103bb6000830184610397565b92915050565b600082825260208201905092915050565b7f4f6e6c7920746865206f776e65722063616e20706572666f726d20746869732060008201527f6f7065726174696f6e0000000000000000000000000000000000000000000000602082015250565b600061042e6029836103c1565b9150610439826103d2565b604082019050919050565b6000602082019050818103600083015261045d81610421565b9050919050565b600081519050919050565b60005b8381101561048d578082015181840152602081019050610472565b60008484015250505050565b60006104a482610464565b6104ae81856103c1565b93506104be81856020860161046f565b6104c7816101e0565b840191505092915050565b600060208201905081810360008301526104ec8184610499565b90509291505056fea26469706673582212207f93a5e561e2ea781b36c1334f03402e2fbb9c5586cc2672aad1edad5382c30c64736f6c63430008130033",
  "immutableReferences": {},
  "source": "// SPDX-License-Identifier: MIT\r\npragma solidity ^0.8.19;\r\n\r\ncontract ContinuousMonitoringAndImprovement {\r\n    address public owner;\r\n    \r\n    event ImprovementIdentified(string improvementDescription);\r\n    event UserFeedbackReceived(string feedback);\r\n    \r\n    constructor() {\r\n        owner = msg.sender;\r\n    }\r\n    \r\n    modifier onlyOwner() {\r\n        require(msg.sender == owner, \"Only the owner can perform this operation\");\r\n        _;\r\n    }\r\n    \r\n    function identifyImprovement(string memory improvementDescription) public onlyOwner {\r\n        emit ImprovementIdentified(improvementDescription);\r\n    }\r\n    \r\n    function collectUserFeedback(string memory feedback) public {\r\n        emit UserFeedbackReceived(feedback);\r\n    }\r\n}",
  "sourcePath": "D:\\Project_Test\\web\\contracts\\ContinuousMonitoringAndImprovement.sol",
  "compiler": {
    "name": "solc",
    "version": "0.8.19+commit.7dd6d404.Emscripten.clang"
  },
  "schemaVersion": "3.4.16",
  "updatedAt": "2024-05-26T09:48:38.676Z",
  "networkType": "ethereum",
  "devdoc": {
    "kind": "dev",
    "methods": {},
    "version": 1
  },
  "userdoc": {
    "kind": "user",
    "methods": {},
    "version": 1
  }
}