{
  "contractName": "CriticalAreaManagement",
  "abi": [
    {
      "anonymous": false,
      "inputs": [
        {
          "indexed": false,
          "internalType": "string",
          "name": "name",
          "type": "string"
        },
        {
          "indexed": false,
          "internalType": "string",
          "name": "description",
          "type": "string"
        },
        {
          "indexed": false,
          "internalType": "uint8",
          "name": "severity",
          "type": "uint8"
        }
      ],
      "name": "CriticalAreaAdded",
      "type": "event"
    },
    {
      "anonymous": false,
      "inputs": [
        {
          "indexed": false,
          "internalType": "uint256",
          "name": "areaId",
          "type": "uint256"
        }
      ],
      "name": "CriticalAreaRemoved",
      "type": "event"
    },
    {
      "inputs": [
        {
          "internalType": "uint256",
          "name": "",
          "type": "uint256"
        }
      ],
      "name": "criticalAreas",
      "outputs": [
        {
          "internalType": "string",
          "name": "name",
          "type": "string"
        },
        {
          "internalType": "string",
          "name": "description",
          "type": "string"
        },
        {
          "internalType": "uint8",
          "name": "severity",
          "type": "uint8"
        }
      ],
      "stateMutability": "view",
      "type": "function",
      "constant": true
    },
    {
      "inputs": [],
      "name": "totalCriticalAreas",
      "outputs": [
        {
          "internalType": "uint256",
          "name": "",
          "type": "uint256"
        }
      ],
      "stateMutability": "view",
      "type": "function",
      "constant": true
    },
    {
      "inputs": [
        {
          "internalType": "string",
          "name": "_name",
          "type": "string"
        },
        {
          "internalType": "string",
          "name": "_description",
          "type": "string"
        },
        {
          "internalType": "uint8",
          "name": "_severity",
          "type": "uint8"
        }
      ],
      "name": "addCriticalArea",
      "outputs": [],
      "stateMutability": "nonpayable",
      "type": "function"
    },
    {
      "inputs": [
        {
          "internalType": "uint256",
          "name": "_areaId",
          "type": "uint256"
        }
      ],
      "name": "removeCriticalArea",
      "outputs": [],
      "stateMutability": "nonpayable",
      "type": "function"
    }
  ],
  "bytecode": "0x608060405234801561001057600080fd5b50610ba6806100206000396000f3fe608060405234801561001057600080fd5b506004361061004c5760003560e01c806301c4935814610051578063058e539c1461006d57806312fc482c1461009f578063dc0e6930146100bb575b600080fd5b61006b600480360381019061006691906105c4565b6100d9565b005b61008760048036038101906100829190610685565b6101b3565b60405161009693929190610740565b60405180910390f35b6100b960048036038101906100b49190610685565b6102fa565b005b6100c36103ce565b6040516100d09190610794565b60405180910390f35b600160008154809291906100ec906107de565b919050555060405180606001604052808481526020018381526020018260ff16815250600080600154815260200190815260200160002060008201518160000190816101389190610a32565b50602082015181600101908161014e9190610a32565b5060408201518160020160006101000a81548160ff021916908360ff1602179055509050507f55a814cca4c5e9f50aba3edccf580ab85c209adfd9578bec9ae568ae438bb4c98383836040516101a693929190610740565b60405180910390a1505050565b60006020528060005260406000206000915090508060000180546101d690610855565b80601f016020809104026020016040519081016040528092919081815260200182805461020290610855565b801561024f5780601f106102245761010080835404028352916020019161024f565b820191906000526020600020905b81548152906001019060200180831161023257829003601f168201915b50505050509080600101805461026490610855565b80601f016020809104026020016040519081016040528092919081815260200182805461029090610855565b80156102dd5780601f106102b2576101008083540402835291602001916102dd565b820191906000526020600020905b8154815290600101906020018083116102c057829003601f168201915b5050505050908060020160009054906101000a900460ff16905083565b60008111801561030c57506001548111155b61034b576040517f08c379a000000000000000000000000000000000000000000000000000000000815260040161034290610b50565b60405180910390fd5b6000808281526020019081526020016000206000808201600061036e91906103d4565b60018201600061037e91906103d4565b6002820160006101000a81549060ff021916905550507f23dfe6b244de521649d95149fbdf62a8b43c2f1ca36342e45c146375934221cc816040516103c39190610794565b60405180910390a150565b60015481565b5080546103e090610855565b6000825580601f106103f25750610411565b601f0160209004906000526020600020908101906104109190610414565b5b50565b5b8082111561042d576000816000905550600101610415565b5090565b6000604051905090565b600080fd5b600080fd5b600080fd5b600080fd5b6000601f19601f8301169050919050565b7f4e487b7100000000000000000000000000000000000000000000000000000000600052604160045260246000fd5b6104988261044f565b810181811067ffffffffffffffff821117156104b7576104b6610460565b5b80604052505050565b60006104ca610431565b90506104d6828261048f565b919050565b600067ffffffffffffffff8211156104f6576104f5610460565b5b6104ff8261044f565b9050602081019050919050565b82818337600083830152505050565b600061052e610529846104db565b6104c0565b90508281526020810184848401111561054a5761054961044a565b5b61055584828561050c565b509392505050565b600082601f83011261057257610571610445565b5b813561058284826020860161051b565b91505092915050565b600060ff82169050919050565b6105a18161058b565b81146105ac57600080fd5b50565b6000813590506105be81610598565b92915050565b6000806000606084860312156105dd576105dc61043b565b5b600084013567ffffffffffffffff8111156105fb576105fa610440565b5b6106078682870161055d565b935050602084013567ffffffffffffffff81111561062857610627610440565b5b6106348682870161055d565b9250506040610645868287016105af565b9150509250925092565b6000819050919050565b6106628161064f565b811461066d57600080fd5b50565b60008135905061067f81610659565b92915050565b60006020828403121561069b5761069a61043b565b5b60006106a984828501610670565b91505092915050565b600081519050919050565b600082825260208201905092915050565b60005b838110156106ec5780820151818401526020810190506106d1565b60008484015250505050565b6000610703826106b2565b61070d81856106bd565b935061071d8185602086016106ce565b6107268161044f565b840191505092915050565b61073a8161058b565b82525050565b6000606082019050818103600083015261075a81866106f8565b9050818103602083015261076e81856106f8565b905061077d6040830184610731565b949350505050565b61078e8161064f565b82525050565b60006020820190506107a96000830184610785565b92915050565b7f4e487b7100000000000000000000000000000000000000000000000000000000600052601160045260246000fd5b60006107e98261064f565b91507fffffffffffffffffffffffffffffffffffffffffffffffffffffffffffffffff820361081b5761081a6107af565b5b600182019050919050565b7f4e487b7100000000000000000000000000000000000000000000000000000000600052602260045260246000fd5b6000600282049050600182168061086d57607f821691505b6020821081036108805761087f610826565b5b50919050565b60008190508160005260206000209050919050565b60006020601f8301049050919050565b600082821b905092915050565b6000600883026108e87fffffffffffffffffffffffffffffffffffffffffffffffffffffffffffffffff826108ab565b6108f286836108ab565b95508019841693508086168417925050509392505050565b6000819050919050565b600061092f61092a6109258461064f565b61090a565b61064f565b9050919050565b6000819050919050565b61094983610914565b61095d61095582610936565b8484546108b8565b825550505050565b600090565b610972610965565b61097d818484610940565b505050565b5b818110156109a15761099660008261096a565b600181019050610983565b5050565b601f8211156109e6576109b781610886565b6109c08461089b565b810160208510156109cf578190505b6109e36109db8561089b565b830182610982565b50505b505050565b600082821c905092915050565b6000610a09600019846008026109eb565b1980831691505092915050565b6000610a2283836109f8565b9150826002028217905092915050565b610a3b826106b2565b67ffffffffffffffff811115610a5457610a53610460565b5b610a5e8254610855565b610a698282856109a5565b600060209050601f831160018114610a9c5760008415610a8a578287015190505b610a948582610a16565b865550610afc565b601f198416610aaa86610886565b60005b82811015610ad257848901518255600182019150602085019450602081019050610aad565b86831015610aef5784890151610aeb601f8916826109f8565b8355505b6001600288020188555050505b505050505050565b7f496e76616c696420617265612049440000000000000000000000000000000000600082015250565b6000610b3a600f836106bd565b9150610b4582610b04565b602082019050919050565b60006020820190508181036000830152610b6981610b2d565b905091905056fea2646970667358221220c9360f4f5473d01e07f6c3a96642c67b24aa518a64b05445050a00404b1bc34864736f6c63430008130033",
  "immutableReferences": {},
  "source": "// SPDX-License-Identifier: MIT\r\npragma solidity ^0.8.19;\r\n\r\ncontract CriticalAreaManagement {\r\n    // Structure to store information about a critical area\r\n    struct CriticalArea {\r\n        string name;\r\n        string description;\r\n        uint8 severity; // Severity can be on a scale of 1 to 10\r\n    }\r\n\r\n    // Mapping to store critical areas\r\n    mapping(uint256 => CriticalArea) public criticalAreas;\r\n    uint256 public totalCriticalAreas;\r\n\r\n    // Event to log when a new critical area is added\r\n    event CriticalAreaAdded(string name, string description, uint8 severity);\r\n\r\n    // Event to log when a critical area is removed\r\n    event CriticalAreaRemoved(uint256 areaId);\r\n\r\n    // Function to add a new critical area\r\n    function addCriticalArea(string memory _name, string memory _description, uint8 _severity) public {\r\n        totalCriticalAreas++;\r\n        criticalAreas[totalCriticalAreas] = CriticalArea(_name, _description, _severity);\r\n\r\n        emit CriticalAreaAdded(_name, _description, _severity);\r\n    }\r\n\r\n    // Function to remove a critical area\r\n    function removeCriticalArea(uint256 _areaId) public {\r\n        require(_areaId > 0 && _areaId <= totalCriticalAreas, \"Invalid area ID\");\r\n\r\n        delete criticalAreas[_areaId];\r\n\r\n        emit CriticalAreaRemoved(_areaId);\r\n    }\r\n}",
  "sourcePath": "D:\\Project_Test\\web\\contracts\\CriticalAreaManagement.sol",
  "compiler": {
    "name": "solc",
    "version": "0.8.19+commit.7dd6d404.Emscripten.clang"
  },
  "schemaVersion": "3.4.16",
  "updatedAt": "2024-05-26T09:48:37.705Z",
  "networkType": "ethereum",
  "devdoc": {
    "kind": "dev",
    "methods": {},
    "version": 1
  },
  "userdoc": {
    "kind": "user",
    "methods": {},
    "version": 1
  }
}