{
  "contractName": "CryptoCurrencyAidDistribution",
  "abi": [
    {
      "inputs": [],
      "stateMutability": "nonpayable",
      "type": "constructor"
    },
    {
      "anonymous": false,
      "inputs": [
        {
          "indexed": true,
          "internalType": "address",
          "name": "recipient",
          "type": "address"
        },
        {
          "indexed": false,
          "internalType": "uint256",
          "name": "amount",
          "type": "uint256"
        }
      ],
      "name": "AidDistributed",
      "type": "event"
    },
    {
      "anonymous": false,
      "inputs": [
        {
          "indexed": true,
          "internalType": "address",
          "name": "from",
          "type": "address"
        },
        {
          "indexed": false,
          "internalType": "uint256",
          "name": "amount",
          "type": "uint256"
        }
      ],
      "name": "FundsDeposited",
      "type": "event"
    },
    {
      "anonymous": false,
      "inputs": [
        {
          "indexed": true,
          "internalType": "address",
          "name": "recipient",
          "type": "address"
        },
        {
          "indexed": false,
          "internalType": "uint256",
          "name": "amount",
          "type": "uint256"
        }
      ],
      "name": "RecipientAdded",
      "type": "event"
    },
    {
      "inputs": [],
      "name": "organization",
      "outputs": [
        {
          "internalType": "address",
          "name": "",
          "type": "address"
        }
      ],
      "stateMutability": "view",
      "type": "function",
      "constant": true
    },
    {
      "inputs": [
        {
          "internalType": "address",
          "name": "",
          "type": "address"
        }
      ],
      "name": "recipients",
      "outputs": [
        {
          "internalType": "uint256",
          "name": "",
          "type": "uint256"
        }
      ],
      "stateMutability": "view",
      "type": "function",
      "constant": true
    },
    {
      "inputs": [],
      "name": "totalRecipients",
      "outputs": [
        {
          "internalType": "uint256",
          "name": "",
          "type": "uint256"
        }
      ],
      "stateMutability": "view",
      "type": "function",
      "constant": true
    },
    {
      "inputs": [
        {
          "internalType": "address",
          "name": "_recipient",
          "type": "address"
        },
        {
          "internalType": "uint256",
          "name": "_amount",
          "type": "uint256"
        }
      ],
      "name": "addRecipient",
      "outputs": [],
      "stateMutability": "nonpayable",
      "type": "function"
    },
    {
      "inputs": [],
      "name": "distributeAid",
      "outputs": [],
      "stateMutability": "nonpayable",
      "type": "function"
    },
    {
      "inputs": [],
      "name": "depositFunds",
      "outputs": [],
      "stateMutability": "payable",
      "type": "function",
      "payable": true
    },
    {
      "inputs": [
        {
          "internalType": "address",
          "name": "_recipient",
          "type": "address"
        }
      ],
      "name": "getAidAmount",
      "outputs": [
        {
          "internalType": "uint256",
          "name": "",
          "type": "uint256"
        }
      ],
      "stateMutability": "view",
      "type": "function",
      "constant": true
    },
    {
      "inputs": [
        {
          "internalType": "uint256",
          "name": "_amount",
          "type": "uint256"
        }
      ],
      "name": "withdrawFunds",
      "outputs": [],
      "stateMutability": "nonpayable",
      "type": "function"
    }
  ],
  "bytecode": "0x608060405234801561001057600080fd5b50336000806101000a81548173ffffffffffffffffffffffffffffffffffffffff021916908373ffffffffffffffffffffffffffffffffffffffff160217905550610dc9806100606000396000f3fe60806040526004361061007b5760003560e01c8063e2c41dbc1161004e578063e2c41dbc14610128578063eb82031214610132578063f4f8495b1461016f578063f79822431461019a5761007b565b8063155dd5ee1461008057806323bd4d7a146100a957806324dafb2f146100d45780639176df6c146100eb575b600080fd5b34801561008c57600080fd5b506100a760048036038101906100a2919061091b565b6101c3565b005b3480156100b557600080fd5b506100be6102fe565b6040516100cb9190610989565b60405180910390f35b3480156100e057600080fd5b506100e9610322565b005b3480156100f757600080fd5b50610112600480360381019061010d91906109d0565b61052b565b60405161011f9190610a0c565b60405180910390f35b610130610574565b005b34801561013e57600080fd5b50610159600480360381019061015491906109d0565b610652565b6040516101669190610a0c565b60405180910390f35b34801561017b57600080fd5b5061018461066a565b6040516101919190610a0c565b60405180910390f35b3480156101a657600080fd5b506101c160048036038101906101bc9190610a27565b610670565b005b60008054906101000a900473ffffffffffffffffffffffffffffffffffffffff1673ffffffffffffffffffffffffffffffffffffffff163373ffffffffffffffffffffffffffffffffffffffff1614610251576040517f08c379a000000000000000000000000000000000000000000000000000000000815260040161024890610aea565b60405180910390fd5b47811115610294576040517f08c379a000000000000000000000000000000000000000000000000000000000815260040161028b90610b56565b60405180910390fd5b60008054906101000a900473ffffffffffffffffffffffffffffffffffffffff1673ffffffffffffffffffffffffffffffffffffffff166108fc829081150290604051600060405180830381858888f193505050501580156102fa573d6000803e3d6000fd5b5050565b60008054906101000a900473ffffffffffffffffffffffffffffffffffffffff1681565b60008054906101000a900473ffffffffffffffffffffffffffffffffffffffff1673ffffffffffffffffffffffffffffffffffffffff163373ffffffffffffffffffffffffffffffffffffffff16146103b0576040517f08c379a00000000000000000000000000000000000000000000000000000000081526004016103a790610aea565b60405180910390fd5b60005b600254811015610528576000816040516020016103d09190610b97565b6040516020818303038152906040528051906020012060001c90506000600160008373ffffffffffffffffffffffffffffffffffffffff1673ffffffffffffffffffffffffffffffffffffffff1681526020019081526020016000205490506000811115610513576000600160008473ffffffffffffffffffffffffffffffffffffffff1673ffffffffffffffffffffffffffffffffffffffff168152602001908152602001600020819055508173ffffffffffffffffffffffffffffffffffffffff166108fc829081150290604051600060405180830381858888f193505050501580156104c3573d6000803e3d6000fd5b508173ffffffffffffffffffffffffffffffffffffffff167f91c3f598b227370a7a7a553adae3d4016589813febef1ae4a8c4ea710284dc0a8260405161050a9190610a0c565b60405180910390a25b5050808061052090610be1565b9150506103b3565b50565b6000600160008373ffffffffffffffffffffffffffffffffffffffff1673ffffffffffffffffffffffffffffffffffffffff168152602001908152602001600020549050919050565b60008054906101000a900473ffffffffffffffffffffffffffffffffffffffff1673ffffffffffffffffffffffffffffffffffffffff163373ffffffffffffffffffffffffffffffffffffffff1614610602576040517f08c379a00000000000000000000000000000000000000000000000000000000081526004016105f990610aea565b60405180910390fd5b3373ffffffffffffffffffffffffffffffffffffffff167f543ba50a5eec5e6178218e364b1d0f396157b3c8fa278522c2cb7fd99407d474346040516106489190610a0c565b60405180910390a2565b60016020528060005260406000206000915090505481565b60025481565b60008054906101000a900473ffffffffffffffffffffffffffffffffffffffff1673ffffffffffffffffffffffffffffffffffffffff163373ffffffffffffffffffffffffffffffffffffffff16146106fe576040517f08c379a00000000000000000000000000000000000000000000000000000000081526004016106f590610aea565b60405180910390fd5b600073ffffffffffffffffffffffffffffffffffffffff168273ffffffffffffffffffffffffffffffffffffffff160361076d576040517f08c379a000000000000000000000000000000000000000000000000000000000815260040161076490610c75565b60405180910390fd5b600081116107b0576040517f08c379a00000000000000000000000000000000000000000000000000000000081526004016107a790610d07565b60405180910390fd5b6000600160008473ffffffffffffffffffffffffffffffffffffffff1673ffffffffffffffffffffffffffffffffffffffff1681526020019081526020016000205414610832576040517f08c379a000000000000000000000000000000000000000000000000000000000815260040161082990610d73565b60405180910390fd5b80600160008473ffffffffffffffffffffffffffffffffffffffff1673ffffffffffffffffffffffffffffffffffffffff168152602001908152602001600020819055506002600081548092919061088990610be1565b91905055508173ffffffffffffffffffffffffffffffffffffffff167f79e1204b22e0669817ad586b72c3139f6c32afa18749b53228050f4c7f696467826040516108d49190610a0c565b60405180910390a25050565b600080fd5b6000819050919050565b6108f8816108e5565b811461090357600080fd5b50565b600081359050610915816108ef565b92915050565b600060208284031215610931576109306108e0565b5b600061093f84828501610906565b91505092915050565b600073ffffffffffffffffffffffffffffffffffffffff82169050919050565b600061097382610948565b9050919050565b61098381610968565b82525050565b600060208201905061099e600083018461097a565b92915050565b6109ad81610968565b81146109b857600080fd5b50565b6000813590506109ca816109a4565b92915050565b6000602082840312156109e6576109e56108e0565b5b60006109f4848285016109bb565b91505092915050565b610a06816108e5565b82525050565b6000602082019050610a2160008301846109fd565b92915050565b60008060408385031215610a3e57610a3d6108e0565b5b6000610a4c858286016109bb565b9250506020610a5d85828601610906565b9150509250929050565b600082825260208201905092915050565b7f4f6e6c7920746865206f7267616e697a6174696f6e2063616e20706572666f7260008201527f6d207468697320616374696f6e00000000000000000000000000000000000000602082015250565b6000610ad4602d83610a67565b9150610adf82610a78565b604082019050919050565b60006020820190508181036000830152610b0381610ac7565b9050919050565b7f496e73756666696369656e7420636f6e74726163742062616c616e6365000000600082015250565b6000610b40601d83610a67565b9150610b4b82610b0a565b602082019050919050565b60006020820190508181036000830152610b6f81610b33565b9050919050565b6000819050919050565b610b91610b8c826108e5565b610b76565b82525050565b6000610ba38284610b80565b60208201915081905092915050565b7f4e487b7100000000000000000000000000000000000000000000000000000000600052601160045260246000fd5b6000610bec826108e5565b91507fffffffffffffffffffffffffffffffffffffffffffffffffffffffffffffffff8203610c1e57610c1d610bb2565b5b600182019050919050565b7f496e76616c696420726563697069656e74206164647265737300000000000000600082015250565b6000610c5f601983610a67565b9150610c6a82610c29565b602082019050919050565b60006020820190508181036000830152610c8e81610c52565b9050919050565b7f41696420616d6f756e74206d7573742062652067726561746572207468616e2060008201527f7a65726f00000000000000000000000000000000000000000000000000000000602082015250565b6000610cf1602483610a67565b9150610cfc82610c95565b604082019050919050565b60006020820190508181036000830152610d2081610ce4565b9050919050565b7f526563697069656e7420616c7265616479206164646564000000000000000000600082015250565b6000610d5d601783610a67565b9150610d6882610d27565b602082019050919050565b60006020820190508181036000830152610d8c81610d50565b905091905056fea2646970667358221220dbb5feb306901ac754a92f72412195428718b1061746bb804527504fcefd80c064736f6c63430008130033",
  "immutableReferences": {},
  "source": "// SPDX-License-Identifier: MIT\r\npragma solidity ^0.8.0;\r\n\r\ncontract CryptoCurrencyAidDistribution {\r\n    address public organization;\r\n    mapping(address => uint256) public recipients;\r\n    uint256 public totalRecipients;\r\n\r\n    event RecipientAdded(address indexed recipient, uint256 amount);\r\n    event AidDistributed(address indexed recipient, uint256 amount);\r\n    event FundsDeposited(address indexed from, uint256 amount);\r\n\r\n    modifier onlyOrganization() {\r\n        require(msg.sender == organization, \"Only the organization can perform this action\");\r\n        _;\r\n    }\r\n\r\n    constructor() {\r\n        organization = msg.sender;\r\n    }\r\n\r\n    // Function to add a recipient and specify the amount of aid\r\n    function addRecipient(address _recipient, uint256 _amount) public onlyOrganization {\r\n        require(_recipient != address(0), \"Invalid recipient address\");\r\n        require(_amount > 0, \"Aid amount must be greater than zero\");\r\n        require(recipients[_recipient] == 0, \"Recipient already added\");\r\n\r\n        recipients[_recipient] = _amount;\r\n        totalRecipients++;\r\n        emit RecipientAdded(_recipient, _amount);\r\n    }\r\n\r\n    // Function to distribute aid to all recipients\r\n    function distributeAid() public onlyOrganization {\r\n        for (uint256 i = 0; i < totalRecipients; i++) {\r\n            address recipient = address(uint160(uint256(keccak256(abi.encodePacked(i)))));\r\n            uint256 amount = recipients[recipient];\r\n\r\n            if (amount > 0) {\r\n                recipients[recipient] = 0;\r\n                payable(recipient).transfer(amount);\r\n                emit AidDistributed(recipient, amount);\r\n            }\r\n        }\r\n    }\r\n\r\n    // Function to deposit funds into the contract\r\n    function depositFunds() public payable onlyOrganization {\r\n        emit FundsDeposited(msg.sender, msg.value);\r\n    }\r\n\r\n    // Function to get the aid amount for a specific recipient\r\n    function getAidAmount(address _recipient) public view returns (uint256) {\r\n        return recipients[_recipient];\r\n    }\r\n    \r\n    // Function to withdraw remaining funds by the organization\r\n    function withdrawFunds(uint256 _amount) public onlyOrganization {\r\n        require(_amount <= address(this).balance, \"Insufficient contract balance\");\r\n        payable(organization).transfer(_amount);\r\n    }\r\n}\r\n",
  "sourcePath": "D:\\Project_Test\\web\\contracts\\CryptoCurrencyAidDistribution.sol",
  "compiler": {
    "name": "solc",
    "version": "0.8.19+commit.7dd6d404.Emscripten.clang"
  },
  "schemaVersion": "3.4.16",
  "updatedAt": "2024-05-26T09:48:39.001Z",
  "networkType": "ethereum",
  "devdoc": {
    "kind": "dev",
    "methods": {},
    "version": 1
  },
  "userdoc": {
    "kind": "user",
    "methods": {},
    "version": 1
  }
}