{
  "contractName": "DisasterManagement",
  "abi": [
    {
      "anonymous": false,
      "inputs": [
        {
          "indexed": false,
          "internalType": "string",
          "name": "name",
          "type": "string"
        },
        {
          "indexed": false,
          "internalType": "string",
          "name": "location",
          "type": "string"
        },
        {
          "indexed": false,
          "internalType": "uint256",
          "name": "timestamp",
          "type": "uint256"
        },
        {
          "indexed": false,
          "internalType": "string",
          "name": "description",
          "type": "string"
        }
      ],
      "name": "DisasterReportAdded",
      "type": "event"
    },
    {
      "anonymous": false,
      "inputs": [
        {
          "indexed": false,
          "internalType": "uint256",
          "name": "reportId",
          "type": "uint256"
        }
      ],
      "name": "DisasterReportResolved",
      "type": "event"
    },
    {
      "inputs": [
        {
          "internalType": "uint256",
          "name": "",
          "type": "uint256"
        }
      ],
      "name": "disasterReports",
      "outputs": [
        {
          "internalType": "string",
          "name": "name",
          "type": "string"
        },
        {
          "internalType": "string",
          "name": "location",
          "type": "string"
        },
        {
          "internalType": "uint256",
          "name": "timestamp",
          "type": "uint256"
        },
        {
          "internalType": "string",
          "name": "description",
          "type": "string"
        },
        {
          "internalType": "bool",
          "name": "isResolved",
          "type": "bool"
        }
      ],
      "stateMutability": "view",
      "type": "function"
    },
    {
      "inputs": [],
      "name": "totalReports",
      "outputs": [
        {
          "internalType": "uint256",
          "name": "",
          "type": "uint256"
        }
      ],
      "stateMutability": "view",
      "type": "function"
    },
    {
      "inputs": [
        {
          "internalType": "string",
          "name": "_name",
          "type": "string"
        },
        {
          "internalType": "string",
          "name": "_location",
          "type": "string"
        },
        {
          "internalType": "uint256",
          "name": "_timestamp",
          "type": "uint256"
        },
        {
          "internalType": "string",
          "name": "_description",
          "type": "string"
        },
        {
          "internalType": "address[]",
          "name": "_stakeholders",
          "type": "address[]"
        }
      ],
      "name": "addDisasterReport",
      "outputs": [],
      "stateMutability": "nonpayable",
      "type": "function"
    },
    {
      "inputs": [
        {
          "internalType": "uint256",
          "name": "_reportId",
          "type": "uint256"
        }
      ],
      "name": "markReportAsResolved",
      "outputs": [],
      "stateMutability": "nonpayable",
      "type": "function"
    }
  ],
  "bytecode": "0x608060405234801561001057600080fd5b50610f38806100206000396000f3fe608060405234801561001057600080fd5b506004361061004c5760003560e01c80630ad5550d1461005157806313ad497f1461006d578063b00eba4f146100a1578063bba0e79e146100bf575b600080fd5b61006b60048036038101906100669190610840565b6100db565b005b6100876004803603810190610082919061092b565b61021d565b604051610098959493929190610a01565b60405180910390f35b6100a9610408565b6040516100b69190610a69565b60405180910390f35b6100d960048036038101906100d4919061092b565b61040e565b005b600160008154809291906100ee90610ab3565b919050555060006040518060c0016040528087815260200186815260200185815260200184815260200160001515815260200183815250908060018154018082558091505060019003906000526020600020906006020160009091909190915060008201518160000190816101639190610d07565b5060208201518160010190816101799190610d07565b506040820151816002015560608201518160030190816101999190610d07565b5060808201518160040160006101000a81548160ff02191690831515021790555060a08201518160050190805190602001906101d69291906104e3565b5050507ff3c4df3e1cb3a883a6d20c926376fe787211db580c6f6f01563103e646ef5a5f8585858560405161020e9493929190610dd9565b60405180910390a15050505050565b6000818154811061022d57600080fd5b906000526020600020906006020160009150905080600001805461025090610b2a565b80601f016020809104026020016040519081016040528092919081815260200182805461027c90610b2a565b80156102c95780601f1061029e576101008083540402835291602001916102c9565b820191906000526020600020905b8154815290600101906020018083116102ac57829003601f168201915b5050505050908060010180546102de90610b2a565b80601f016020809104026020016040519081016040528092919081815260200182805461030a90610b2a565b80156103575780601f1061032c57610100808354040283529160200191610357565b820191906000526020600020905b81548152906001019060200180831161033a57829003601f168201915b50505050509080600201549080600301805461037290610b2a565b80601f016020809104026020016040519081016040528092919081815260200182805461039e90610b2a565b80156103eb5780601f106103c0576101008083540402835291602001916103eb565b820191906000526020600020905b8154815290600101906020018083116103ce57829003601f168201915b5050505050908060040160009054906101000a900460ff16905085565b60015481565b60008111801561042057506001548111155b61045f576040517f08c379a000000000000000000000000000000000000000000000000000000000815260040161045690610e7f565b60405180910390fd5b600160006001836104709190610e9f565b8154811061048157610480610ed3565b5b906000526020600020906006020160040160006101000a81548160ff0219169083151502179055507f4302f32925fd21a63d05834a2898b8822e09be94328e5fec8326166ed07892d9816040516104d89190610a69565b60405180910390a150565b82805482825590600052602060002090810192821561055c579160200282015b8281111561055b5782518260006101000a81548173ffffffffffffffffffffffffffffffffffffffff021916908373ffffffffffffffffffffffffffffffffffffffff16021790555091602001919060010190610503565b5b509050610569919061056d565b5090565b5b8082111561058657600081600090555060010161056e565b5090565b6000604051905090565b600080fd5b600080fd5b600080fd5b600080fd5b6000601f19601f8301169050919050565b7f4e487b7100000000000000000000000000000000000000000000000000000000600052604160045260246000fd5b6105f1826105a8565b810181811067ffffffffffffffff821117156106105761060f6105b9565b5b80604052505050565b600061062361058a565b905061062f82826105e8565b919050565b600067ffffffffffffffff82111561064f5761064e6105b9565b5b610658826105a8565b9050602081019050919050565b82818337600083830152505050565b600061068761068284610634565b610619565b9050828152602081018484840111156106a3576106a26105a3565b5b6106ae848285610665565b509392505050565b600082601f8301126106cb576106ca61059e565b5b81356106db848260208601610674565b91505092915050565b6000819050919050565b6106f7816106e4565b811461070257600080fd5b50565b600081359050610714816106ee565b92915050565b600067ffffffffffffffff821115610735576107346105b9565b5b602082029050602081019050919050565b600080fd5b600073ffffffffffffffffffffffffffffffffffffffff82169050919050565b60006107768261074b565b9050919050565b6107868161076b565b811461079157600080fd5b50565b6000813590506107a38161077d565b92915050565b60006107bc6107b78461071a565b610619565b905080838252602082019050602084028301858111156107df576107de610746565b5b835b8181101561080857806107f48882610794565b8452602084019350506020810190506107e1565b5050509392505050565b600082601f8301126108275761082661059e565b5b81356108378482602086016107a9565b91505092915050565b600080600080600060a0868803121561085c5761085b610594565b5b600086013567ffffffffffffffff81111561087a57610879610599565b5b610886888289016106b6565b955050602086013567ffffffffffffffff8111156108a7576108a6610599565b5b6108b3888289016106b6565b94505060406108c488828901610705565b935050606086013567ffffffffffffffff8111156108e5576108e4610599565b5b6108f1888289016106b6565b925050608086013567ffffffffffffffff81111561091257610911610599565b5b61091e88828901610812565b9150509295509295909350565b60006020828403121561094157610940610594565b5b600061094f84828501610705565b91505092915050565b600081519050919050565b600082825260208201905092915050565b60005b83811015610992578082015181840152602081019050610977565b60008484015250505050565b60006109a982610958565b6109b38185610963565b93506109c3818560208601610974565b6109cc816105a8565b840191505092915050565b6109e0816106e4565b82525050565b60008115159050919050565b6109fb816109e6565b82525050565b600060a0820190508181036000830152610a1b818861099e565b90508181036020830152610a2f818761099e565b9050610a3e60408301866109d7565b8181036060830152610a50818561099e565b9050610a5f60808301846109f2565b9695505050505050565b6000602082019050610a7e60008301846109d7565b92915050565b7f4e487b7100000000000000000000000000000000000000000000000000000000600052601160045260246000fd5b6000610abe826106e4565b91507fffffffffffffffffffffffffffffffffffffffffffffffffffffffffffffffff8203610af057610aef610a84565b5b600182019050919050565b7f4e487b7100000000000000000000000000000000000000000000000000000000600052602260045260246000fd5b60006002820490506001821680610b4257607f821691505b602082108103610b5557610b54610afb565b5b50919050565b60008190508160005260206000209050919050565b60006020601f8301049050919050565b600082821b905092915050565b600060088302610bbd7fffffffffffffffffffffffffffffffffffffffffffffffffffffffffffffffff82610b80565b610bc78683610b80565b95508019841693508086168417925050509392505050565b6000819050919050565b6000610c04610bff610bfa846106e4565b610bdf565b6106e4565b9050919050565b6000819050919050565b610c1e83610be9565b610c32610c2a82610c0b565b848454610b8d565b825550505050565b600090565b610c47610c3a565b610c52818484610c15565b505050565b5b81811015610c7657610c6b600082610c3f565b600181019050610c58565b5050565b601f821115610cbb57610c8c81610b5b565b610c9584610b70565b81016020851015610ca4578190505b610cb8610cb085610b70565b830182610c57565b50505b505050565b600082821c905092915050565b6000610cde60001984600802610cc0565b1980831691505092915050565b6000610cf78383610ccd565b9150826002028217905092915050565b610d1082610958565b67ffffffffffffffff811115610d2957610d286105b9565b5b610d338254610b2a565b610d3e828285610c7a565b600060209050601f831160018114610d715760008415610d5f578287015190505b610d698582610ceb565b865550610dd1565b601f198416610d7f86610b5b565b60005b82811015610da757848901518255600182019150602085019450602081019050610d82565b86831015610dc45784890151610dc0601f891682610ccd565b8355505b6001600288020188555050505b505050505050565b60006080820190508181036000830152610df3818761099e565b90508181036020830152610e07818661099e565b9050610e1660408301856109d7565b8181036060830152610e28818461099e565b905095945050505050565b7f496e76616c6964207265706f7274204944000000000000000000000000000000600082015250565b6000610e69601183610963565b9150610e7482610e33565b602082019050919050565b60006020820190508181036000830152610e9881610e5c565b9050919050565b6000610eaa826106e4565b9150610eb5836106e4565b9250828203905081811115610ecd57610ecc610a84565b5b92915050565b7f4e487b7100000000000000000000000000000000000000000000000000000000600052603260045260246000fdfea2646970667358221220b8ca46dfa98da97adcc475095fd8fd11be59ae6d5b9b38acfb95962e97079d3664736f6c63430008130033",
  "immutableReferences": {},
  "source": "// SPDX-License-Identifier: MIT\r\npragma solidity ^0.8.19;\r\n\r\ncontract DisasterManagement {\r\n    // Structure to store information about a disaster report\r\n    struct DisasterReport {\r\n        string name;\r\n        string location;\r\n        uint256 timestamp;\r\n        string description;\r\n        bool isResolved;\r\n        address[] stakeholders;\r\n    }\r\n\r\n    DisasterReport[] public disasterReports;\r\n    uint256 public totalReports;\r\n\r\n    // Event to log when a new disaster report is added\r\n    event DisasterReportAdded(string name, string location, uint256 timestamp, string description);\r\n\r\n    // Event to log when a disaster report is marked as resolved\r\n    event DisasterReportResolved(uint256 reportId);\r\n\r\n    // Function to add a new disaster report\r\n    function addDisasterReport(\r\n        string memory _name,\r\n        string memory _location,\r\n        uint256 _timestamp,\r\n        string memory _description,\r\n        address[] memory _stakeholders\r\n    ) public {\r\n        totalReports++;\r\n        disasterReports.push(\r\n            DisasterReport({\r\n                name: _name,\r\n                location: _location,\r\n                timestamp: _timestamp,\r\n                description: _description,\r\n                isResolved: false,\r\n                stakeholders: _stakeholders\r\n            })\r\n        );\r\n\r\n        emit DisasterReportAdded(_name, _location, _timestamp, _description);\r\n    }\r\n\r\n    // Function to mark a disaster report as resolved\r\n    function markReportAsResolved(uint256 _reportId) public {\r\n        require(_reportId > 0 && _reportId <= totalReports, \"Invalid report ID\");\r\n        disasterReports[_reportId - 1].isResolved = true;\r\n\r\n        emit DisasterReportResolved(_reportId);\r\n    }\r\n}",
  "sourcePath": "D:\\Project_Test\\web\\contracts\\DisasterReportingAndManagement.sol",
  "compiler": {
    "name": "solc",
    "version": "0.8.19+commit.7dd6d404.Emscripten.clang"
  },
  "schemaVersion": "3.4.16",
  "updatedAt": "2023-11-04T19:12:28.813Z",
  "devdoc": {
    "kind": "dev",
    "methods": {},
    "version": 1
  },
  "userdoc": {
    "kind": "user",
    "methods": {},
    "version": 1
  }
}