{
  "contractName": "MedicalRecordManagement",
  "abi": [
    {
      "anonymous": false,
      "inputs": [
        {
          "indexed": false,
          "internalType": "string",
          "name": "name",
          "type": "string"
        },
        {
          "indexed": false,
          "internalType": "string",
          "name": "addres",
          "type": "string"
        },
        {
          "indexed": false,
          "internalType": "string",
          "name": "dataHash",
          "type": "string"
        }
      ],
      "name": "MedicalRecordAdded",
      "type": "event"
    },
    {
      "inputs": [
        {
          "internalType": "uint256",
          "name": "",
          "type": "uint256"
        }
      ],
      "name": "medicalRecords",
      "outputs": [
        {
          "internalType": "string",
          "name": "name",
          "type": "string"
        },
        {
          "internalType": "string",
          "name": "addres",
          "type": "string"
        },
        {
          "internalType": "string",
          "name": "dataHash",
          "type": "string"
        }
      ],
      "stateMutability": "view",
      "type": "function",
      "constant": true
    },
    {
      "inputs": [],
      "name": "totalMedicalRecords",
      "outputs": [
        {
          "internalType": "uint256",
          "name": "",
          "type": "uint256"
        }
      ],
      "stateMutability": "view",
      "type": "function",
      "constant": true
    },
    {
      "inputs": [
        {
          "internalType": "string",
          "name": "_name",
          "type": "string"
        },
        {
          "internalType": "string",
          "name": "_addres",
          "type": "string"
        },
        {
          "internalType": "string",
          "name": "_dataHash",
          "type": "string"
        }
      ],
      "name": "addMedicalRecord",
      "outputs": [],
      "stateMutability": "nonpayable",
      "type": "function"
    }
  ],
  "bytecode": "0x608060405234801561001057600080fd5b50610a2a806100206000396000f3fe608060405234801561001057600080fd5b50600436106100415760003560e01c8063285ba097146100465780637564a13c14610062578063d79b494b14610094575b600080fd5b610060600480360381019061005b91906104a0565b6100b2565b005b61007c6004803603810190610077919061057d565b61017e565b60405161008b93929190610629565b60405180910390f35b61009c610340565b6040516100a99190610684565b60405180910390f35b600160008154809291906100c5906106ce565b91905055506040518060600160405280848152602001838152602001828152506000806001548152602001908152602001600020600082015181600001908161010e9190610922565b5060208201518160010190816101249190610922565b50604082015181600201908161013a9190610922565b509050507f9882a61e788e57d6661bf0cf7018abb26c935f67765628b732b7a73705e6d40383838360405161017193929190610629565b60405180910390a1505050565b60006020528060005260406000206000915090508060000180546101a190610745565b80601f01602080910402602001604051908101604052809291908181526020018280546101cd90610745565b801561021a5780601f106101ef5761010080835404028352916020019161021a565b820191906000526020600020905b8154815290600101906020018083116101fd57829003601f168201915b50505050509080600101805461022f90610745565b80601f016020809104026020016040519081016040528092919081815260200182805461025b90610745565b80156102a85780601f1061027d576101008083540402835291602001916102a8565b820191906000526020600020905b81548152906001019060200180831161028b57829003601f168201915b5050505050908060020180546102bd90610745565b80601f01602080910402602001604051908101604052809291908181526020018280546102e990610745565b80156103365780601f1061030b57610100808354040283529160200191610336565b820191906000526020600020905b81548152906001019060200180831161031957829003601f168201915b5050505050905083565b60015481565b6000604051905090565b600080fd5b600080fd5b600080fd5b600080fd5b6000601f19601f8301169050919050565b7f4e487b7100000000000000000000000000000000000000000000000000000000600052604160045260246000fd5b6103ad82610364565b810181811067ffffffffffffffff821117156103cc576103cb610375565b5b80604052505050565b60006103df610346565b90506103eb82826103a4565b919050565b600067ffffffffffffffff82111561040b5761040a610375565b5b61041482610364565b9050602081019050919050565b82818337600083830152505050565b600061044361043e846103f0565b6103d5565b90508281526020810184848401111561045f5761045e61035f565b5b61046a848285610421565b509392505050565b600082601f8301126104875761048661035a565b5b8135610497848260208601610430565b91505092915050565b6000806000606084860312156104b9576104b8610350565b5b600084013567ffffffffffffffff8111156104d7576104d6610355565b5b6104e386828701610472565b935050602084013567ffffffffffffffff81111561050457610503610355565b5b61051086828701610472565b925050604084013567ffffffffffffffff81111561053157610530610355565b5b61053d86828701610472565b9150509250925092565b6000819050919050565b61055a81610547565b811461056557600080fd5b50565b60008135905061057781610551565b92915050565b60006020828403121561059357610592610350565b5b60006105a184828501610568565b91505092915050565b600081519050919050565b600082825260208201905092915050565b60005b838110156105e45780820151818401526020810190506105c9565b60008484015250505050565b60006105fb826105aa565b61060581856105b5565b93506106158185602086016105c6565b61061e81610364565b840191505092915050565b6000606082019050818103600083015261064381866105f0565b9050818103602083015261065781856105f0565b9050818103604083015261066b81846105f0565b9050949350505050565b61067e81610547565b82525050565b60006020820190506106996000830184610675565b92915050565b7f4e487b7100000000000000000000000000000000000000000000000000000000600052601160045260246000fd5b60006106d982610547565b91507fffffffffffffffffffffffffffffffffffffffffffffffffffffffffffffffff820361070b5761070a61069f565b5b600182019050919050565b7f4e487b7100000000000000000000000000000000000000000000000000000000600052602260045260246000fd5b6000600282049050600182168061075d57607f821691505b6020821081036107705761076f610716565b5b50919050565b60008190508160005260206000209050919050565b60006020601f8301049050919050565b600082821b905092915050565b6000600883026107d87fffffffffffffffffffffffffffffffffffffffffffffffffffffffffffffffff8261079b565b6107e2868361079b565b95508019841693508086168417925050509392505050565b6000819050919050565b600061081f61081a61081584610547565b6107fa565b610547565b9050919050565b6000819050919050565b61083983610804565b61084d61084582610826565b8484546107a8565b825550505050565b600090565b610862610855565b61086d818484610830565b505050565b5b818110156108915761088660008261085a565b600181019050610873565b5050565b601f8211156108d6576108a781610776565b6108b08461078b565b810160208510156108bf578190505b6108d36108cb8561078b565b830182610872565b50505b505050565b600082821c905092915050565b60006108f9600019846008026108db565b1980831691505092915050565b600061091283836108e8565b9150826002028217905092915050565b61092b826105aa565b67ffffffffffffffff81111561094457610943610375565b5b61094e8254610745565b610959828285610895565b600060209050601f83116001811461098c576000841561097a578287015190505b6109848582610906565b8655506109ec565b601f19841661099a86610776565b60005b828110156109c25784890151825560018201915060208501945060208101905061099d565b868310156109df57848901516109db601f8916826108e8565b8355505b6001600288020188555050505b50505050505056fea26469706673582212204cec653bb994f2fb5d628f9faf68c58e8ab2cfd34d264d44a32a01a722f4bb3864736f6c63430008130033",
  "immutableReferences": {},
  "source": "// SPDX-License-Identifier: MIT\r\npragma solidity ^0.8.19;\r\n\r\ncontract MedicalRecordManagement {\r\n    // Structure to store medical records\r\n    struct MedicalRecord {\r\n        string name;\r\n        string addres;\r\n        string dataHash; // Hash of the actual medical data\r\n    }\r\n\r\n    // Mapping to store medical records\r\n    mapping(uint256 => MedicalRecord) public medicalRecords;\r\n\r\n    uint256 public totalMedicalRecords;\r\n\r\n    // Event to log when a new medical record is added\r\n    event MedicalRecordAdded(string name, string addres, string dataHash);\r\n\r\n    // Function to add a medical record to the system\r\n    function addMedicalRecord(string memory _name, string memory _addres, string memory _dataHash) public {\r\n        totalMedicalRecords++;\r\n        medicalRecords[totalMedicalRecords] = MedicalRecord(_name, _addres, _dataHash);\r\n        emit MedicalRecordAdded(_name, _addres, _dataHash);\r\n    }\r\n}",
  "sourcePath": "D:\\Project_Test\\web\\contracts\\MedicalRecordManagement.sol",
  "compiler": {
    "name": "solc",
    "version": "0.8.19+commit.7dd6d404.Emscripten.clang"
  },
  "schemaVersion": "3.4.16",
  "updatedAt": "2024-05-26T09:48:38.358Z",
  "networkType": "ethereum",
  "devdoc": {
    "kind": "dev",
    "methods": {},
    "version": 1
  },
  "userdoc": {
    "kind": "user",
    "methods": {},
    "version": 1
  }
}