{
  "contractName": "MissingPeopleLog",
  "abi": [
    {
      "anonymous": false,
      "inputs": [
        {
          "indexed": false,
          "internalType": "string",
          "name": "name",
          "type": "string"
        },
        {
          "indexed": false,
          "internalType": "string",
          "name": "lastKnownLocation",
          "type": "string"
        },
        {
          "indexed": false,
          "internalType": "string",
          "name": "description",
          "type": "string"
        }
      ],
      "name": "PersonAdded",
      "type": "event"
    },
    {
      "inputs": [
        {
          "internalType": "uint256",
          "name": "",
          "type": "uint256"
        }
      ],
      "name": "missingPeople",
      "outputs": [
        {
          "internalType": "string",
          "name": "name",
          "type": "string"
        },
        {
          "internalType": "string",
          "name": "lastKnownLocation",
          "type": "string"
        },
        {
          "internalType": "string",
          "name": "description",
          "type": "string"
        }
      ],
      "stateMutability": "view",
      "type": "function",
      "constant": true
    },
    {
      "inputs": [],
      "name": "totalMissingPeople",
      "outputs": [
        {
          "internalType": "uint256",
          "name": "",
          "type": "uint256"
        }
      ],
      "stateMutability": "view",
      "type": "function",
      "constant": true
    },
    {
      "inputs": [
        {
          "internalType": "string",
          "name": "_name",
          "type": "string"
        },
        {
          "internalType": "string",
          "name": "_lastKnownLocation",
          "type": "string"
        },
        {
          "internalType": "string",
          "name": "_description",
          "type": "string"
        }
      ],
      "name": "addMissingPerson",
      "outputs": [],
      "stateMutability": "nonpayable",
      "type": "function"
    }
  ],
  "bytecode": "0x608060405234801561001057600080fd5b50610a2a806100206000396000f3fe608060405234801561001057600080fd5b50600436106100415760003560e01c8063531c75c11461004657806357970d4a14610062578063b68f7ec714610080575b600080fd5b610060600480360381019061005b91906104a0565b6100b2565b005b61006a61017e565b6040516100779190610560565b60405180910390f35b61009a600480360381019061009591906105a7565b610184565b6040516100a993929190610653565b60405180910390f35b600160008154809291906100c5906106ce565b91905055506040518060600160405280848152602001838152602001828152506000806001548152602001908152602001600020600082015181600001908161010e9190610922565b5060208201518160010190816101249190610922565b50604082015181600201908161013a9190610922565b509050507f93c5d9f2e976c123168fad5664cb05343ae9e7804429b033ad02843e251b0a5183838360405161017193929190610653565b60405180910390a1505050565b60015481565b60006020528060005260406000206000915090508060000180546101a790610745565b80601f01602080910402602001604051908101604052809291908181526020018280546101d390610745565b80156102205780601f106101f557610100808354040283529160200191610220565b820191906000526020600020905b81548152906001019060200180831161020357829003601f168201915b50505050509080600101805461023590610745565b80601f016020809104026020016040519081016040528092919081815260200182805461026190610745565b80156102ae5780601f10610283576101008083540402835291602001916102ae565b820191906000526020600020905b81548152906001019060200180831161029157829003601f168201915b5050505050908060020180546102c390610745565b80601f01602080910402602001604051908101604052809291908181526020018280546102ef90610745565b801561033c5780601f106103115761010080835404028352916020019161033c565b820191906000526020600020905b81548152906001019060200180831161031f57829003601f168201915b5050505050905083565b6000604051905090565b600080fd5b600080fd5b600080fd5b600080fd5b6000601f19601f8301169050919050565b7f4e487b7100000000000000000000000000000000000000000000000000000000600052604160045260246000fd5b6103ad82610364565b810181811067ffffffffffffffff821117156103cc576103cb610375565b5b80604052505050565b60006103df610346565b90506103eb82826103a4565b919050565b600067ffffffffffffffff82111561040b5761040a610375565b5b61041482610364565b9050602081019050919050565b82818337600083830152505050565b600061044361043e846103f0565b6103d5565b90508281526020810184848401111561045f5761045e61035f565b5b61046a848285610421565b509392505050565b600082601f8301126104875761048661035a565b5b8135610497848260208601610430565b91505092915050565b6000806000606084860312156104b9576104b8610350565b5b600084013567ffffffffffffffff8111156104d7576104d6610355565b5b6104e386828701610472565b935050602084013567ffffffffffffffff81111561050457610503610355565b5b61051086828701610472565b925050604084013567ffffffffffffffff81111561053157610530610355565b5b61053d86828701610472565b9150509250925092565b6000819050919050565b61055a81610547565b82525050565b60006020820190506105756000830184610551565b92915050565b61058481610547565b811461058f57600080fd5b50565b6000813590506105a18161057b565b92915050565b6000602082840312156105bd576105bc610350565b5b60006105cb84828501610592565b91505092915050565b600081519050919050565b600082825260208201905092915050565b60005b8381101561060e5780820151818401526020810190506105f3565b60008484015250505050565b6000610625826105d4565b61062f81856105df565b935061063f8185602086016105f0565b61064881610364565b840191505092915050565b6000606082019050818103600083015261066d818661061a565b90508181036020830152610681818561061a565b90508181036040830152610695818461061a565b9050949350505050565b7f4e487b7100000000000000000000000000000000000000000000000000000000600052601160045260246000fd5b60006106d982610547565b91507fffffffffffffffffffffffffffffffffffffffffffffffffffffffffffffffff820361070b5761070a61069f565b5b600182019050919050565b7f4e487b7100000000000000000000000000000000000000000000000000000000600052602260045260246000fd5b6000600282049050600182168061075d57607f821691505b6020821081036107705761076f610716565b5b50919050565b60008190508160005260206000209050919050565b60006020601f8301049050919050565b600082821b905092915050565b6000600883026107d87fffffffffffffffffffffffffffffffffffffffffffffffffffffffffffffffff8261079b565b6107e2868361079b565b95508019841693508086168417925050509392505050565b6000819050919050565b600061081f61081a61081584610547565b6107fa565b610547565b9050919050565b6000819050919050565b61083983610804565b61084d61084582610826565b8484546107a8565b825550505050565b600090565b610862610855565b61086d818484610830565b505050565b5b818110156108915761088660008261085a565b600181019050610873565b5050565b601f8211156108d6576108a781610776565b6108b08461078b565b810160208510156108bf578190505b6108d36108cb8561078b565b830182610872565b50505b505050565b600082821c905092915050565b60006108f9600019846008026108db565b1980831691505092915050565b600061091283836108e8565b9150826002028217905092915050565b61092b826105d4565b67ffffffffffffffff81111561094457610943610375565b5b61094e8254610745565b610959828285610895565b600060209050601f83116001811461098c576000841561097a578287015190505b6109848582610906565b8655506109ec565b601f19841661099a86610776565b60005b828110156109c25784890151825560018201915060208501945060208101905061099d565b868310156109df57848901516109db601f8916826108e8565b8355505b6001600288020188555050505b50505050505056fea264697066735822122014d0e6bdd552ad89e9adc21a72c5a373c0c7f322f1d2e831e97ac325cd5e43a764736f6c63430008130033",
  "immutableReferences": {},
  "source": "// SPDX-License-Identifier: MIT\r\npragma solidity ^0.8.19;\r\n\r\ncontract MissingPeopleLog {\r\n    // Structure to store information about a missing person\r\n    struct MissingPerson {\r\n        string name;\r\n        string lastKnownLocation;\r\n        string description;\r\n    }\r\n\r\n    // Mapping to store missing persons' information\r\n    mapping(uint256 => MissingPerson) public missingPeople;\r\n\r\n    uint256 public totalMissingPeople;\r\n\r\n    // Event to log when a new person is added to the missing people list\r\n    event PersonAdded(string name, string lastKnownLocation, string description);\r\n\r\n    // Function to add a missing person to the log\r\n    function addMissingPerson(string memory _name, string memory _lastKnownLocation, string memory _description) public {\r\n        totalMissingPeople++;\r\n        missingPeople[totalMissingPeople] = MissingPerson(_name, _lastKnownLocation, _description);\r\n        emit PersonAdded(_name, _lastKnownLocation, _description);\r\n    }\r\n}",
  "sourcePath": "D:\\Project_Test\\web\\contracts\\MissingPeopleLog.sol",
  "compiler": {
    "name": "solc",
    "version": "0.8.19+commit.7dd6d404.Emscripten.clang"
  },
  "schemaVersion": "3.4.16",
  "updatedAt": "2024-05-26T09:48:36.956Z",
  "networkType": "ethereum",
  "devdoc": {
    "kind": "dev",
    "methods": {},
    "version": 1
  },
  "userdoc": {
    "kind": "user",
    "methods": {},
    "version": 1
  }
}