{
  "contractName": "RefugeeReliefCampMapping",
  "abi": [
    {
      "anonymous": false,
      "inputs": [
        {
          "indexed": false,
          "internalType": "string",
          "name": "name",
          "type": "string"
        },
        {
          "indexed": false,
          "internalType": "string",
          "name": "location",
          "type": "string"
        },
        {
          "indexed": false,
          "internalType": "uint256",
          "name": "campId",
          "type": "uint256"
        }
      ],
      "name": "RefugeeAdded",
      "type": "event"
    },
    {
      "anonymous": false,
      "inputs": [
        {
          "indexed": false,
          "internalType": "string",
          "name": "name",
          "type": "string"
        },
        {
          "indexed": false,
          "internalType": "string",
          "name": "location",
          "type": "string"
        },
        {
          "indexed": false,
          "internalType": "uint256",
          "name": "size",
          "type": "uint256"
        }
      ],
      "name": "ReliefCampAdded",
      "type": "event"
    },
    {
      "inputs": [
        {
          "internalType": "uint256",
          "name": "",
          "type": "uint256"
        }
      ],
      "name": "refugees",
      "outputs": [
        {
          "internalType": "string",
          "name": "name",
          "type": "string"
        },
        {
          "internalType": "string",
          "name": "location",
          "type": "string"
        },
        {
          "internalType": "uint256",
          "name": "campId",
          "type": "uint256"
        }
      ],
      "stateMutability": "view",
      "type": "function",
      "constant": true
    },
    {
      "inputs": [
        {
          "internalType": "uint256",
          "name": "",
          "type": "uint256"
        }
      ],
      "name": "reliefCamps",
      "outputs": [
        {
          "internalType": "string",
          "name": "name",
          "type": "string"
        },
        {
          "internalType": "string",
          "name": "location",
          "type": "string"
        },
        {
          "internalType": "uint256",
          "name": "size",
          "type": "uint256"
        },
        {
          "internalType": "uint256",
          "name": "currentOccupancy",
          "type": "uint256"
        }
      ],
      "stateMutability": "view",
      "type": "function",
      "constant": true
    },
    {
      "inputs": [],
      "name": "totalRefugees",
      "outputs": [
        {
          "internalType": "uint256",
          "name": "",
          "type": "uint256"
        }
      ],
      "stateMutability": "view",
      "type": "function",
      "constant": true
    },
    {
      "inputs": [],
      "name": "totalReliefCamps",
      "outputs": [
        {
          "internalType": "uint256",
          "name": "",
          "type": "uint256"
        }
      ],
      "stateMutability": "view",
      "type": "function",
      "constant": true
    },
    {
      "inputs": [
        {
          "internalType": "string",
          "name": "_name",
          "type": "string"
        },
        {
          "internalType": "string",
          "name": "_location",
          "type": "string"
        },
        {
          "internalType": "uint256",
          "name": "_campId",
          "type": "uint256"
        }
      ],
      "name": "addRefugee",
      "outputs": [],
      "stateMutability": "nonpayable",
      "type": "function"
    },
    {
      "inputs": [
        {
          "internalType": "string",
          "name": "_name",
          "type": "string"
        },
        {
          "internalType": "string",
          "name": "_location",
          "type": "string"
        },
        {
          "internalType": "uint256",
          "name": "_size",
          "type": "uint256"
        }
      ],
      "name": "addReliefCamp",
      "outputs": [],
      "stateMutability": "nonpayable",
      "type": "function"
    },
    {
      "inputs": [
        {
          "internalType": "uint256",
          "name": "_refugeeId",
          "type": "uint256"
        },
        {
          "internalType": "uint256",
          "name": "_campId",
          "type": "uint256"
        }
      ],
      "name": "allocateRefugeeToCamp",
      "outputs": [],
      "stateMutability": "nonpayable",
      "type": "function"
    }
  ],
  "bytecode": "0x608060405234801561001057600080fd5b50611140806100206000396000f3fe608060405234801561001057600080fd5b506004361061007d5760003560e01c80639a180f7e1161005b5780639a180f7e146100da578063a99ff7ad1461010c578063bc2eedf11461013f578063d8fd481e1461015b5761007d565b806326d0312f1461008257806328c37ac31461009e5780632a9da603146100bc575b600080fd5b61009c60048036038101906100979190610832565b610177565b005b6100a6610334565b6040516100b39190610881565b60405180910390f35b6100c461033a565b6040516100d19190610881565b60405180910390f35b6100f460048036038101906100ef919061089c565b610340565b60405161010393929190610959565b60405180910390f35b6101266004803603810190610121919061089c565b61048a565b604051610136949392919061099e565b60405180910390f35b61015960048036038101906101549190610b26565b6105da565b005b61017560048036038101906101709190610b26565b6106c1565b005b60008211801561018957506002548211155b6101c8576040517f08c379a00000000000000000000000000000000000000000000000000000000081526004016101bf90610bfd565b60405180910390fd5b6000811180156101da57506003548111155b610219576040517f08c379a000000000000000000000000000000000000000000000000000000000815260040161021090610c69565b60405180910390fd5b8060006001846102299190610cb8565b8154811061023a57610239610cec565b5b9060005260206000209060030201600201819055506001808261025d9190610cb8565b8154811061026e5761026d610cec565b5b9060005260206000209060040201600301600081548092919061029090610d1b565b91905055507f3dcd84f024fdd81c80f48e3ba768790c86785725ffa98ecd0072abcf86c540cf60006001846102c59190610cb8565b815481106102d6576102d5610cec565b5b906000526020600020906003020160000160006001856102f69190610cb8565b8154811061030757610306610cec565b5b90600052602060002090600302016001018360405161032893929190610e5c565b60405180910390a15050565b60035481565b60025481565b6000818154811061035057600080fd5b906000526020600020906003020160009150905080600001805461037390610d92565b80601f016020809104026020016040519081016040528092919081815260200182805461039f90610d92565b80156103ec5780601f106103c1576101008083540402835291602001916103ec565b820191906000526020600020905b8154815290600101906020018083116103cf57829003601f168201915b50505050509080600101805461040190610d92565b80601f016020809104026020016040519081016040528092919081815260200182805461042d90610d92565b801561047a5780601f1061044f5761010080835404028352916020019161047a565b820191906000526020600020905b81548152906001019060200180831161045d57829003601f168201915b5050505050908060020154905083565b6001818154811061049a57600080fd5b90600052602060002090600402016000915090508060000180546104bd90610d92565b80601f01602080910402602001604051908101604052809291908181526020018280546104e990610d92565b80156105365780601f1061050b57610100808354040283529160200191610536565b820191906000526020600020905b81548152906001019060200180831161051957829003601f168201915b50505050509080600101805461054b90610d92565b80601f016020809104026020016040519081016040528092919081815260200182805461057790610d92565b80156105c45780601f10610599576101008083540402835291602001916105c4565b820191906000526020600020905b8154815290600101906020018083116105a757829003601f168201915b5050505050908060020154908060030154905084565b600360008154809291906105ed90610d1b565b9190505550600160405180608001604052808581526020018481526020018381526020016000815250908060018154018082558091505060019003906000526020600020906004020160009091909190915060008201518160000190816106549190611038565b50602082015181600101908161066a9190611038565b50604082015181600201556060820151816003015550507fd64a4f62870adaf3226fa9dabdabbe61ed44f96674f7b65a72374c91b66081a68383836040516106b493929190610959565b60405180910390a1505050565b6000811180156106d357506003548111155b610712576040517f08c379a000000000000000000000000000000000000000000000000000000000815260040161070990610c69565b60405180910390fd5b6002600081548092919061072590610d1b565b91905055506000604051806060016040528085815260200184815260200183815250908060018154018082558091505060019003906000526020600020906003020160009091909190915060008201518160000190816107859190611038565b50602082015181600101908161079b9190611038565b506040820151816002015550507f3dcd84f024fdd81c80f48e3ba768790c86785725ffa98ecd0072abcf86c540cf8383836040516107db93929190610959565b60405180910390a1505050565b6000604051905090565b600080fd5b600080fd5b6000819050919050565b61080f816107fc565b811461081a57600080fd5b50565b60008135905061082c81610806565b92915050565b60008060408385031215610849576108486107f2565b5b60006108578582860161081d565b92505060206108688582860161081d565b9150509250929050565b61087b816107fc565b82525050565b60006020820190506108966000830184610872565b92915050565b6000602082840312156108b2576108b16107f2565b5b60006108c08482850161081d565b91505092915050565b600081519050919050565b600082825260208201905092915050565b60005b838110156109035780820151818401526020810190506108e8565b60008484015250505050565b6000601f19601f8301169050919050565b600061092b826108c9565b61093581856108d4565b93506109458185602086016108e5565b61094e8161090f565b840191505092915050565b600060608201905081810360008301526109738186610920565b905081810360208301526109878185610920565b90506109966040830184610872565b949350505050565b600060808201905081810360008301526109b88187610920565b905081810360208301526109cc8186610920565b90506109db6040830185610872565b6109e86060830184610872565b95945050505050565b600080fd5b600080fd5b7f4e487b7100000000000000000000000000000000000000000000000000000000600052604160045260246000fd5b610a338261090f565b810181811067ffffffffffffffff82111715610a5257610a516109fb565b5b80604052505050565b6000610a656107e8565b9050610a718282610a2a565b919050565b600067ffffffffffffffff821115610a9157610a906109fb565b5b610a9a8261090f565b9050602081019050919050565b82818337600083830152505050565b6000610ac9610ac484610a76565b610a5b565b905082815260208101848484011115610ae557610ae46109f6565b5b610af0848285610aa7565b509392505050565b600082601f830112610b0d57610b0c6109f1565b5b8135610b1d848260208601610ab6565b91505092915050565b600080600060608486031215610b3f57610b3e6107f2565b5b600084013567ffffffffffffffff811115610b5d57610b5c6107f7565b5b610b6986828701610af8565b935050602084013567ffffffffffffffff811115610b8a57610b896107f7565b5b610b9686828701610af8565b9250506040610ba78682870161081d565b9150509250925092565b7f496e76616c696420726566756765652049440000000000000000000000000000600082015250565b6000610be76012836108d4565b9150610bf282610bb1565b602082019050919050565b60006020820190508181036000830152610c1681610bda565b9050919050565b7f496e76616c69642063616d702049440000000000000000000000000000000000600082015250565b6000610c53600f836108d4565b9150610c5e82610c1d565b602082019050919050565b60006020820190508181036000830152610c8281610c46565b9050919050565b7f4e487b7100000000000000000000000000000000000000000000000000000000600052601160045260246000fd5b6000610cc3826107fc565b9150610cce836107fc565b9250828203905081811115610ce657610ce5610c89565b5b92915050565b7f4e487b7100000000000000000000000000000000000000000000000000000000600052603260045260246000fd5b6000610d26826107fc565b91507fffffffffffffffffffffffffffffffffffffffffffffffffffffffffffffffff8203610d5857610d57610c89565b5b600182019050919050565b7f4e487b7100000000000000000000000000000000000000000000000000000000600052602260045260246000fd5b60006002820490506001821680610daa57607f821691505b602082108103610dbd57610dbc610d63565b5b50919050565b60008190508160005260206000209050919050565b60008154610de581610d92565b610def81866108d4565b94506001821660008114610e0a5760018114610e2057610e53565b60ff198316865281151560200286019350610e53565b610e2985610dc3565b60005b83811015610e4b57815481890152600182019150602081019050610e2c565b808801955050505b50505092915050565b60006060820190508181036000830152610e768186610dd8565b90508181036020830152610e8a8185610dd8565b9050610e996040830184610872565b949350505050565b60006020601f8301049050919050565b600082821b905092915050565b600060088302610eee7fffffffffffffffffffffffffffffffffffffffffffffffffffffffffffffffff82610eb1565b610ef88683610eb1565b95508019841693508086168417925050509392505050565b6000819050919050565b6000610f35610f30610f2b846107fc565b610f10565b6107fc565b9050919050565b6000819050919050565b610f4f83610f1a565b610f63610f5b82610f3c565b848454610ebe565b825550505050565b600090565b610f78610f6b565b610f83818484610f46565b505050565b5b81811015610fa757610f9c600082610f70565b600181019050610f89565b5050565b601f821115610fec57610fbd81610dc3565b610fc684610ea1565b81016020851015610fd5578190505b610fe9610fe185610ea1565b830182610f88565b50505b505050565b600082821c905092915050565b600061100f60001984600802610ff1565b1980831691505092915050565b60006110288383610ffe565b9150826002028217905092915050565b611041826108c9565b67ffffffffffffffff81111561105a576110596109fb565b5b6110648254610d92565b61106f828285610fab565b600060209050601f8311600181146110a25760008415611090578287015190505b61109a858261101c565b865550611102565b601f1984166110b086610dc3565b60005b828110156110d8578489015182556001820191506020850194506020810190506110b3565b868310156110f557848901516110f1601f891682610ffe565b8355505b6001600288020188555050505b50505050505056fea26469706673582212205697a94f769468dae2c9edb1306242c60a94694c7da7c5c931824e6b7efa262c64736f6c63430008130033",
  "immutableReferences": {},
  "source": "// SPDX-License-Identifier: MIT\r\npragma solidity ^0.8.19;\r\n\r\ncontract RefugeeReliefCampMapping {\r\n    // Structure to store information about a refugee\r\n    struct Refugee {\r\n        string name;\r\n        string location;\r\n        uint256 campId;\r\n    }\r\n\r\n    // Structure to store information about a relief camp\r\n    struct ReliefCamp {\r\n        string name;\r\n        string location;\r\n        uint256 size; // Capacity of the camp\r\n        uint256 currentOccupancy; // Number of refugees in the camp\r\n    }\r\n\r\n    Refugee[] public refugees;\r\n    ReliefCamp[] public reliefCamps;\r\n    uint256 public totalRefugees;\r\n    uint256 public totalReliefCamps;\r\n\r\n    // Event to log when a new refugee is added\r\n    event RefugeeAdded(string name, string location, uint256 campId);\r\n\r\n    // Event to log when a new relief camp is added\r\n    event ReliefCampAdded(string name, string location, uint256 size);\r\n\r\n    // Function to add a new refugee and assign them to a camp\r\n    function addRefugee(string memory _name, string memory _location, uint256 _campId) public {\r\n        require(_campId > 0 && _campId <= totalReliefCamps, \"Invalid camp ID\");\r\n        totalRefugees++;\r\n        refugees.push(Refugee(_name, _location, _campId));\r\n\r\n        emit RefugeeAdded(_name, _location, _campId);\r\n    }\r\n\r\n    // Function to add a new relief camp\r\n    function addReliefCamp(string memory _name, string memory _location, uint256 _size) public {\r\n        totalReliefCamps++;\r\n        reliefCamps.push(ReliefCamp(_name, _location, _size, 0));\r\n\r\n        emit ReliefCampAdded(_name, _location, _size);\r\n    }\r\n\r\n    // Function to allocate a refugee to a camp\r\n    function allocateRefugeeToCamp(uint256 _refugeeId, uint256 _campId) public {\r\n        require(_refugeeId > 0 && _refugeeId <= totalRefugees, \"Invalid refugee ID\");\r\n        require(_campId > 0 && _campId <= totalReliefCamps, \"Invalid camp ID\");\r\n\r\n        refugees[_refugeeId - 1].campId = _campId;\r\n        reliefCamps[_campId - 1].currentOccupancy++;\r\n\r\n        emit RefugeeAdded(refugees[_refugeeId - 1].name, refugees[_refugeeId - 1].location, _campId);\r\n    }\r\n}",
  "sourcePath": "D:\\Project_Test\\web\\contracts\\RefugeeReliefCampMapping.sol",
  "compiler": {
    "name": "solc",
    "version": "0.8.19+commit.7dd6d404.Emscripten.clang"
  },
  "schemaVersion": "3.4.16",
  "updatedAt": "2024-05-26T09:48:38.086Z",
  "networkType": "ethereum",
  "devdoc": {
    "kind": "dev",
    "methods": {},
    "version": 1
  },
  "userdoc": {
    "kind": "user",
    "methods": {},
    "version": 1
  }
}