{
  "contractName": "SecureDataStorage",
  "abi": [
    {
      "inputs": [],
      "stateMutability": "nonpayable",
      "type": "constructor"
    },
    {
      "anonymous": false,
      "inputs": [
        {
          "indexed": true,
          "internalType": "address",
          "name": "user",
          "type": "address"
        }
      ],
      "name": "AccessGranted",
      "type": "event"
    },
    {
      "anonymous": false,
      "inputs": [
        {
          "indexed": true,
          "internalType": "address",
          "name": "user",
          "type": "address"
        }
      ],
      "name": "AccessRevoked",
      "type": "event"
    },
    {
      "anonymous": false,
      "inputs": [
        {
          "indexed": true,
          "internalType": "uint256",
          "name": "dataId",
          "type": "uint256"
        },
        {
          "indexed": true,
          "internalType": "address",
          "name": "uploader",
          "type": "address"
        },
        {
          "indexed": false,
          "internalType": "string",
          "name": "dataHash",
          "type": "string"
        },
        {
          "indexed": false,
          "internalType": "string",
          "name": "metadata",
          "type": "string"
        }
      ],
      "name": "DataRegistered",
      "type": "event"
    },
    {
      "inputs": [],
      "name": "owner",
      "outputs": [
        {
          "internalType": "address",
          "name": "",
          "type": "address"
        }
      ],
      "stateMutability": "view",
      "type": "function",
      "constant": true
    },
    {
      "inputs": [
        {
          "internalType": "address",
          "name": "_user",
          "type": "address"
        }
      ],
      "name": "grantAccess",
      "outputs": [],
      "stateMutability": "nonpayable",
      "type": "function"
    },
    {
      "inputs": [
        {
          "internalType": "address",
          "name": "_user",
          "type": "address"
        }
      ],
      "name": "revokeAccess",
      "outputs": [],
      "stateMutability": "nonpayable",
      "type": "function"
    },
    {
      "inputs": [
        {
          "internalType": "string",
          "name": "_dataHash",
          "type": "string"
        },
        {
          "internalType": "string",
          "name": "_metadata",
          "type": "string"
        }
      ],
      "name": "registerData",
      "outputs": [],
      "stateMutability": "nonpayable",
      "type": "function"
    },
    {
      "inputs": [
        {
          "internalType": "uint256",
          "name": "_dataId",
          "type": "uint256"
        }
      ],
      "name": "getData",
      "outputs": [
        {
          "internalType": "string",
          "name": "",
          "type": "string"
        },
        {
          "internalType": "string",
          "name": "",
          "type": "string"
        },
        {
          "internalType": "address",
          "name": "",
          "type": "address"
        }
      ],
      "stateMutability": "view",
      "type": "function",
      "constant": true
    }
  ],
  "bytecode": "0x608060405234801561001057600080fd5b50336000806101000a81548173ffffffffffffffffffffffffffffffffffffffff021916908373ffffffffffffffffffffffffffffffffffffffff16021790555061107f806100606000396000f3fe608060405234801561001057600080fd5b50600436106100575760003560e01c80630178fe3f1461005c5780630ae5e7391461008e578063171838ce146100aa57806385e68531146100c65780638da5cb5b146100e2575b600080fd5b610076600480360381019061007191906107c9565b610100565b604051610085939291906108c7565b60405180910390f35b6100a860048036038101906100a39190610938565b61034c565b005b6100c460048036038101906100bf9190610a9a565b610478565b005b6100e060048036038101906100db9190610938565b61062f565b005b6100ea61075b565b6040516100f79190610b12565b60405180910390f35b6060806000600260003373ffffffffffffffffffffffffffffffffffffffff1673ffffffffffffffffffffffffffffffffffffffff16815260200190815260200160002060009054906101000a900460ff16610191576040517f08c379a000000000000000000000000000000000000000000000000000000000815260040161018890610b9f565b60405180910390fd5b6000841180156101a357506003548411155b6101e2576040517f08c379a00000000000000000000000000000000000000000000000000000000081526004016101d990610c0b565b60405180910390fd5b600060016000868152602001908152602001600020905080600001816001018260020160009054906101000a900473ffffffffffffffffffffffffffffffffffffffff1682805461023290610c5a565b80601f016020809104026020016040519081016040528092919081815260200182805461025e90610c5a565b80156102ab5780601f10610280576101008083540402835291602001916102ab565b820191906000526020600020905b81548152906001019060200180831161028e57829003601f168201915b505050505092508180546102be90610c5a565b80601f01602080910402602001604051908101604052809291908181526020018280546102ea90610c5a565b80156103375780601f1061030c57610100808354040283529160200191610337565b820191906000526020600020905b81548152906001019060200180831161031a57829003601f168201915b50505050509150935093509350509193909250565b60008054906101000a900473ffffffffffffffffffffffffffffffffffffffff1673ffffffffffffffffffffffffffffffffffffffff163373ffffffffffffffffffffffffffffffffffffffff16146103da576040517f08c379a00000000000000000000000000000000000000000000000000000000081526004016103d190610cfd565b60405180910390fd5b6001600260008373ffffffffffffffffffffffffffffffffffffffff1673ffffffffffffffffffffffffffffffffffffffff16815260200190815260200160002060006101000a81548160ff0219169083151502179055508073ffffffffffffffffffffffffffffffffffffffff167fdeb5c31899474fe8c086c95ff9344480d19365676a6a1d22d37bb8e3e7c0ef1860405160405180910390a250565b600260003373ffffffffffffffffffffffffffffffffffffffff1673ffffffffffffffffffffffffffffffffffffffff16815260200190815260200160002060009054906101000a900460ff16610504576040517f08c379a00000000000000000000000000000000000000000000000000000000081526004016104fb90610b9f565b60405180910390fd5b6003600081548092919061051790610d4c565b919050555060405180606001604052808381526020018281526020013373ffffffffffffffffffffffffffffffffffffffff1681525060016000600354815260200190815260200160002060008201518160000190816105779190610f40565b50602082015181600101908161058d9190610f40565b5060408201518160020160006101000a81548173ffffffffffffffffffffffffffffffffffffffff021916908373ffffffffffffffffffffffffffffffffffffffff1602179055509050503373ffffffffffffffffffffffffffffffffffffffff166003547f12928e214b255ecbf9524075851549c57d9b88226a1a4b05cea850ef0dbdd4208484604051610623929190611012565b60405180910390a35050565b60008054906101000a900473ffffffffffffffffffffffffffffffffffffffff1673ffffffffffffffffffffffffffffffffffffffff163373ffffffffffffffffffffffffffffffffffffffff16146106bd576040517f08c379a00000000000000000000000000000000000000000000000000000000081526004016106b490610cfd565b60405180910390fd5b6000600260008373ffffffffffffffffffffffffffffffffffffffff1673ffffffffffffffffffffffffffffffffffffffff16815260200190815260200160002060006101000a81548160ff0219169083151502179055508073ffffffffffffffffffffffffffffffffffffffff167f1b9b72fde9da721e70e6aca3b0cf4cbe73e82765ef1f280157740376531bfdd860405160405180910390a250565b60008054906101000a900473ffffffffffffffffffffffffffffffffffffffff1681565b6000604051905090565b600080fd5b600080fd5b6000819050919050565b6107a681610793565b81146107b157600080fd5b50565b6000813590506107c38161079d565b92915050565b6000602082840312156107df576107de610789565b5b60006107ed848285016107b4565b91505092915050565b600081519050919050565b600082825260208201905092915050565b60005b83811015610830578082015181840152602081019050610815565b60008484015250505050565b6000601f19601f8301169050919050565b6000610858826107f6565b6108628185610801565b9350610872818560208601610812565b61087b8161083c565b840191505092915050565b600073ffffffffffffffffffffffffffffffffffffffff82169050919050565b60006108b182610886565b9050919050565b6108c1816108a6565b82525050565b600060608201905081810360008301526108e1818661084d565b905081810360208301526108f5818561084d565b905061090460408301846108b8565b949350505050565b610915816108a6565b811461092057600080fd5b50565b6000813590506109328161090c565b92915050565b60006020828403121561094e5761094d610789565b5b600061095c84828501610923565b91505092915050565b600080fd5b600080fd5b7f4e487b7100000000000000000000000000000000000000000000000000000000600052604160045260246000fd5b6109a78261083c565b810181811067ffffffffffffffff821117156109c6576109c561096f565b5b80604052505050565b60006109d961077f565b90506109e5828261099e565b919050565b600067ffffffffffffffff821115610a0557610a0461096f565b5b610a0e8261083c565b9050602081019050919050565b82818337600083830152505050565b6000610a3d610a38846109ea565b6109cf565b905082815260208101848484011115610a5957610a5861096a565b5b610a64848285610a1b565b509392505050565b600082601f830112610a8157610a80610965565b5b8135610a91848260208601610a2a565b91505092915050565b60008060408385031215610ab157610ab0610789565b5b600083013567ffffffffffffffff811115610acf57610ace61078e565b5b610adb85828601610a6c565b925050602083013567ffffffffffffffff811115610afc57610afb61078e565b5b610b0885828601610a6c565b9150509250929050565b6000602082019050610b2760008301846108b8565b92915050565b7f4f6e6c7920617574686f72697a65642075736572732063616e20706572666f7260008201527f6d207468697320616374696f6e00000000000000000000000000000000000000602082015250565b6000610b89602d83610801565b9150610b9482610b2d565b604082019050919050565b60006020820190508181036000830152610bb881610b7c565b9050919050565b7f496e76616c696420646174612049440000000000000000000000000000000000600082015250565b6000610bf5600f83610801565b9150610c0082610bbf565b602082019050919050565b60006020820190508181036000830152610c2481610be8565b9050919050565b7f4e487b7100000000000000000000000000000000000000000000000000000000600052602260045260246000fd5b60006002820490506001821680610c7257607f821691505b602082108103610c8557610c84610c2b565b5b50919050565b7f4f6e6c7920746865206f776e65722063616e20706572666f726d20746869732060008201527f616374696f6e0000000000000000000000000000000000000000000000000000602082015250565b6000610ce7602683610801565b9150610cf282610c8b565b604082019050919050565b60006020820190508181036000830152610d1681610cda565b9050919050565b7f4e487b7100000000000000000000000000000000000000000000000000000000600052601160045260246000fd5b6000610d5782610793565b91507fffffffffffffffffffffffffffffffffffffffffffffffffffffffffffffffff8203610d8957610d88610d1d565b5b600182019050919050565b60008190508160005260206000209050919050565b60006020601f8301049050919050565b600082821b905092915050565b600060088302610df67fffffffffffffffffffffffffffffffffffffffffffffffffffffffffffffffff82610db9565b610e008683610db9565b95508019841693508086168417925050509392505050565b6000819050919050565b6000610e3d610e38610e3384610793565b610e18565b610793565b9050919050565b6000819050919050565b610e5783610e22565b610e6b610e6382610e44565b848454610dc6565b825550505050565b600090565b610e80610e73565b610e8b818484610e4e565b505050565b5b81811015610eaf57610ea4600082610e78565b600181019050610e91565b5050565b601f821115610ef457610ec581610d94565b610ece84610da9565b81016020851015610edd578190505b610ef1610ee985610da9565b830182610e90565b50505b505050565b600082821c905092915050565b6000610f1760001984600802610ef9565b1980831691505092915050565b6000610f308383610f06565b9150826002028217905092915050565b610f49826107f6565b67ffffffffffffffff811115610f6257610f6161096f565b5b610f6c8254610c5a565b610f77828285610eb3565b600060209050601f831160018114610faa5760008415610f98578287015190505b610fa28582610f24565b86555061100a565b601f198416610fb886610d94565b60005b82811015610fe057848901518255600182019150602085019450602081019050610fbb565b86831015610ffd5784890151610ff9601f891682610f06565b8355505b6001600288020188555050505b505050505050565b6000604082019050818103600083015261102c818561084d565b90508181036020830152611040818461084d565b9050939250505056fea2646970667358221220f5e59167bd3eb15da12b47989994dd402365b2a79d3ddafdd6bbd8c21c8f82d464736f6c63430008130033",
  "immutableReferences": {},
  "source": "// SPDX-License-Identifier: MIT\r\npragma solidity ^0.8.0;\r\n\r\ncontract SecureDataStorage {\r\n    address public owner;\r\n\r\n    struct EncryptedData {\r\n        string dataHash; // Hash of the encrypted data stored off-chain (e.g., IPFS hash)\r\n        string metadata; // Additional metadata (e.g., description, timestamp)\r\n        address uploader;\r\n    }\r\n\r\n    mapping(uint256 => EncryptedData) private dataRegistry;\r\n    mapping(address => bool) private authorizedUsers;\r\n    uint256 private dataCount;\r\n\r\n    event DataRegistered(uint256 indexed dataId, address indexed uploader, string dataHash, string metadata);\r\n    event AccessGranted(address indexed user);\r\n    event AccessRevoked(address indexed user);\r\n\r\n    modifier onlyOwner() {\r\n        require(msg.sender == owner, \"Only the owner can perform this action\");\r\n        _;\r\n    }\r\n\r\n    modifier onlyAuthorized() {\r\n        require(authorizedUsers[msg.sender], \"Only authorized users can perform this action\");\r\n        _;\r\n    }\r\n\r\n    constructor() {\r\n        owner = msg.sender;\r\n    }\r\n\r\n    // Grant access to a user\r\n    function grantAccess(address _user) public onlyOwner {\r\n        authorizedUsers[_user] = true;\r\n        emit AccessGranted(_user);\r\n    }\r\n\r\n    // Revoke access from a user\r\n    function revokeAccess(address _user) public onlyOwner {\r\n        authorizedUsers[_user] = false;\r\n        emit AccessRevoked(_user);\r\n    }\r\n\r\n    // Register encrypted data\r\n    function registerData(string memory _dataHash, string memory _metadata) public onlyAuthorized {\r\n        dataCount++;\r\n        dataRegistry[dataCount] = EncryptedData({\r\n            dataHash: _dataHash,\r\n            metadata: _metadata,\r\n            uploader: msg.sender\r\n        });\r\n        emit DataRegistered(dataCount, msg.sender, _dataHash, _metadata);\r\n    }\r\n\r\n    // Retrieve encrypted data\r\n    function getData(uint256 _dataId) public view onlyAuthorized returns (string memory, string memory, address) {\r\n        require(_dataId > 0 && _dataId <= dataCount, \"Invalid data ID\");\r\n        EncryptedData storage data = dataRegistry[_dataId];\r\n        return (data.dataHash, data.metadata, data.uploader);\r\n    }\r\n\r\n   \r\n}\r\n",
  "sourcePath": "D:\\Project_Test\\web\\contracts\\SecureDataStorage.sol",
  "compiler": {
    "name": "solc",
    "version": "0.8.19+commit.7dd6d404.Emscripten.clang"
  },
  "schemaVersion": "3.4.16",
  "updatedAt": "2024-05-26T09:48:39.705Z",
  "networkType": "ethereum",
  "devdoc": {
    "kind": "dev",
    "methods": {},
    "version": 1
  },
  "userdoc": {
    "kind": "user",
    "methods": {},
    "version": 1
  }
}