{
  "contractName": "SmartInsurance",
  "abi": [
    {
      "inputs": [],
      "stateMutability": "nonpayable",
      "type": "constructor"
    },
    {
      "anonymous": false,
      "inputs": [
        {
          "indexed": false,
          "internalType": "uint256",
          "name": "policyId",
          "type": "uint256"
        },
        {
          "indexed": false,
          "internalType": "uint256",
          "name": "payoutAmount",
          "type": "uint256"
        }
      ],
      "name": "ClaimApproved",
      "type": "event"
    },
    {
      "anonymous": false,
      "inputs": [
        {
          "indexed": false,
          "internalType": "uint256",
          "name": "policyId",
          "type": "uint256"
        }
      ],
      "name": "ClaimRejected",
      "type": "event"
    },
    {
      "anonymous": false,
      "inputs": [
        {
          "indexed": false,
          "internalType": "uint256",
          "name": "policyId",
          "type": "uint256"
        },
        {
          "indexed": false,
          "internalType": "uint256",
          "name": "damageAmount",
          "type": "uint256"
        }
      ],
      "name": "ClaimSubmitted",
      "type": "event"
    },
    {
      "anonymous": false,
      "inputs": [
        {
          "indexed": false,
          "internalType": "uint256",
          "name": "policyId",
          "type": "uint256"
        },
        {
          "indexed": false,
          "internalType": "address",
          "name": "policyHolder",
          "type": "address"
        },
        {
          "indexed": false,
          "internalType": "uint256",
          "name": "premium",
          "type": "uint256"
        },
        {
          "indexed": false,
          "internalType": "uint256",
          "name": "payout",
          "type": "uint256"
        }
      ],
      "name": "PolicyCreated",
      "type": "event"
    },
    {
      "inputs": [
        {
          "internalType": "uint256",
          "name": "",
          "type": "uint256"
        }
      ],
      "name": "assessments",
      "outputs": [
        {
          "internalType": "uint256",
          "name": "policyId",
          "type": "uint256"
        },
        {
          "internalType": "uint256",
          "name": "damageAmount",
          "type": "uint256"
        },
        {
          "internalType": "bool",
          "name": "isAssessed",
          "type": "bool"
        },
        {
          "internalType": "bool",
          "name": "isApproved",
          "type": "bool"
        }
      ],
      "stateMutability": "view",
      "type": "function",
      "constant": true
    },
    {
      "inputs": [],
      "name": "insurer",
      "outputs": [
        {
          "internalType": "address",
          "name": "",
          "type": "address"
        }
      ],
      "stateMutability": "view",
      "type": "function",
      "constant": true
    },
    {
      "inputs": [
        {
          "internalType": "uint256",
          "name": "",
          "type": "uint256"
        }
      ],
      "name": "policies",
      "outputs": [
        {
          "internalType": "uint256",
          "name": "policyId",
          "type": "uint256"
        },
        {
          "internalType": "address",
          "name": "policyHolder",
          "type": "address"
        },
        {
          "internalType": "uint256",
          "name": "premium",
          "type": "uint256"
        },
        {
          "internalType": "uint256",
          "name": "payout",
          "type": "uint256"
        },
        {
          "internalType": "bool",
          "name": "isActive",
          "type": "bool"
        },
        {
          "internalType": "bool",
          "name": "isClaimed",
          "type": "bool"
        }
      ],
      "stateMutability": "view",
      "type": "function",
      "constant": true
    },
    {
      "inputs": [],
      "name": "policyCount",
      "outputs": [
        {
          "internalType": "uint256",
          "name": "",
          "type": "uint256"
        }
      ],
      "stateMutability": "view",
      "type": "function",
      "constant": true
    },
    {
      "inputs": [
        {
          "internalType": "address",
          "name": "_policyHolder",
          "type": "address"
        },
        {
          "internalType": "uint256",
          "name": "_premium",
          "type": "uint256"
        },
        {
          "internalType": "uint256",
          "name": "_payout",
          "type": "uint256"
        }
      ],
      "name": "createPolicy",
      "outputs": [],
      "stateMutability": "nonpayable",
      "type": "function"
    },
    {
      "inputs": [
        {
          "internalType": "uint256",
          "name": "_policyId",
          "type": "uint256"
        },
        {
          "internalType": "uint256",
          "name": "_damageAmount",
          "type": "uint256"
        }
      ],
      "name": "submitClaim",
      "outputs": [],
      "stateMutability": "nonpayable",
      "type": "function"
    },
    {
      "inputs": [
        {
          "internalType": "uint256",
          "name": "_policyId",
          "type": "uint256"
        },
        {
          "internalType": "bool",
          "name": "_isApproved",
          "type": "bool"
        }
      ],
      "name": "assessClaim",
      "outputs": [],
      "stateMutability": "nonpayable",
      "type": "function"
    },
    {
      "inputs": [],
      "name": "fundContract",
      "outputs": [],
      "stateMutability": "payable",
      "type": "function",
      "payable": true
    },
    {
      "inputs": [
        {
          "internalType": "uint256",
          "name": "_policyId",
          "type": "uint256"
        }
      ],
      "name": "getPolicyDetails",
      "outputs": [
        {
          "components": [
            {
              "internalType": "uint256",
              "name": "policyId",
              "type": "uint256"
            },
            {
              "internalType": "address",
              "name": "policyHolder",
              "type": "address"
            },
            {
              "internalType": "uint256",
              "name": "premium",
              "type": "uint256"
            },
            {
              "internalType": "uint256",
              "name": "payout",
              "type": "uint256"
            },
            {
              "internalType": "bool",
              "name": "isActive",
              "type": "bool"
            },
            {
              "internalType": "bool",
              "name": "isClaimed",
              "type": "bool"
            }
          ],
          "internalType": "struct SmartInsurance.Policy",
          "name": "",
          "type": "tuple"
        }
      ],
      "stateMutability": "view",
      "type": "function",
      "constant": true
    },
    {
      "inputs": [
        {
          "internalType": "uint256",
          "name": "_policyId",
          "type": "uint256"
        }
      ],
      "name": "getAssessmentDetails",
      "outputs": [
        {
          "components": [
            {
              "internalType": "uint256",
              "name": "policyId",
              "type": "uint256"
            },
            {
              "internalType": "uint256",
              "name": "damageAmount",
              "type": "uint256"
            },
            {
              "internalType": "bool",
              "name": "isAssessed",
              "type": "bool"
            },
            {
              "internalType": "bool",
              "name": "isApproved",
              "type": "bool"
            }
          ],
          "internalType": "struct SmartInsurance.DamageAssessment",
          "name": "",
          "type": "tuple"
        }
      ],
      "stateMutability": "view",
      "type": "function",
      "constant": true
    }
  ],
  "bytecode": "0x6080604052600060015534801561001557600080fd5b50336000806101000a81548173ffffffffffffffffffffffffffffffffffffffff021916908373ffffffffffffffffffffffffffffffffffffffff1602179055506114be806100656000396000f3fe6080604052600436106100915760003560e01c8063c45f85be11610059578063c45f85be1461015b578063cc03801014610198578063d3e89483146101d5578063dbc837c514610217578063de54d4291461024257610091565b8063083acb09146100965780634a758df7146100bf5780634eb6a3b2146100e85780639167506314610128578063bd097e2114610151575b600080fd5b3480156100a257600080fd5b506100bd60048036038101906100b89190610db6565b61026d565b005b3480156100cb57600080fd5b506100e660048036038101906100e19190610e41565b61045f565b005b3480156100f457600080fd5b5061010f600480360381019061010a9190610e81565b61079e565b60405161011f9493929190610ecc565b60405180910390f35b34801561013457600080fd5b5061014f600480360381019061014a9190610f11565b6107e8565b005b610159610a23565b005b34801561016757600080fd5b50610182600480360381019061017d9190610e81565b610ab3565b60405161018f9190610fc4565b60405180910390f35b3480156101a457600080fd5b506101bf60048036038101906101ba9190610e81565b610b2a565b6040516101cc9190611069565b60405180910390f35b3480156101e157600080fd5b506101fc60048036038101906101f79190610e81565b610c01565b60405161020e96959493929190611093565b60405180910390f35b34801561022357600080fd5b5061022c610c77565b60405161023991906110f4565b60405180910390f35b34801561024e57600080fd5b50610257610c9b565b604051610264919061110f565b60405180910390f35b60008054906101000a900473ffffffffffffffffffffffffffffffffffffffff1673ffffffffffffffffffffffffffffffffffffffff163373ffffffffffffffffffffffffffffffffffffffff16146102fb576040517f08c379a00000000000000000000000000000000000000000000000000000000081526004016102f2906111ad565b60405180910390fd5b6001600081548092919061030e906111fc565b91905055506040518060c0016040528060015481526020018473ffffffffffffffffffffffffffffffffffffffff168152602001838152602001828152602001600115158152602001600015158152506002600060015481526020019081526020016000206000820151816000015560208201518160010160006101000a81548173ffffffffffffffffffffffffffffffffffffffff021916908373ffffffffffffffffffffffffffffffffffffffff160217905550604082015181600201556060820151816003015560808201518160040160006101000a81548160ff02191690831515021790555060a08201518160040160016101000a81548160ff0219169083151502179055509050507ff407f724dd5d2b7754fcbc405960f07c8da0a85e7f71948913fb2997e77bfc866001548484846040516104529493929190611244565b60405180910390a1505050565b60008054906101000a900473ffffffffffffffffffffffffffffffffffffffff1673ffffffffffffffffffffffffffffffffffffffff163373ffffffffffffffffffffffffffffffffffffffff16146104ed576040517f08c379a00000000000000000000000000000000000000000000000000000000081526004016104e4906111ad565b60405180910390fd5b600015156003600084815260200190815260200160002060020160009054906101000a900460ff16151514610557576040517f08c379a000000000000000000000000000000000000000000000000000000000815260040161054e906112d5565b60405180910390fd5b6002600083815260200190815260200160002060040160009054906101000a900460ff166105ba576040517f08c379a00000000000000000000000000000000000000000000000000000000081526004016105b190611341565b60405180910390fd5b60016003600084815260200190815260200160002060020160006101000a81548160ff021916908315150217905550806003600084815260200190815260200160002060020160016101000a81548160ff02191690831515021790555080156107625760016002600084815260200190815260200160002060040160016101000a81548160ff02191690831515021790555060006002600084815260200190815260200160002060040160006101000a81548160ff0219169083151502179055506002600083815260200190815260200160002060010160009054906101000a900473ffffffffffffffffffffffffffffffffffffffff1673ffffffffffffffffffffffffffffffffffffffff166108fc60026000858152602001908152602001600020600301549081150290604051600060405180830381858888f1935050505015801561070d573d6000803e3d6000fd5b507f638d892b8630b775fea5d7a52b209e8bfa1d90c32b57cd37208ac84d4bcd6dcb826002600085815260200190815260200160002060030154604051610755929190611361565b60405180910390a161079a565b7f2aa44a1bb19392ef6a2fd220d2b1649a6dc1bebbfa2a6f2c496e2d39a3339d0e82604051610791919061110f565b60405180910390a15b5050565b60036020528060005260406000206000915090508060000154908060010154908060020160009054906101000a900460ff16908060020160019054906101000a900460ff16905084565b816002600082815260200190815260200160002060010160009054906101000a900473ffffffffffffffffffffffffffffffffffffffff1673ffffffffffffffffffffffffffffffffffffffff163373ffffffffffffffffffffffffffffffffffffffff161461088d576040517f08c379a0000000000000000000000000000000000000000000000000000000008152600401610884906113fc565b60405180910390fd5b6002600084815260200190815260200160002060040160009054906101000a900460ff166108f0576040517f08c379a00000000000000000000000000000000000000000000000000000000081526004016108e790611341565b60405180910390fd5b6002600084815260200190815260200160002060040160019054906101000a900460ff1615610954576040517f08c379a000000000000000000000000000000000000000000000000000000000815260040161094b90611468565b60405180910390fd5b60405180608001604052808481526020018381526020016000151581526020016000151581525060036000858152602001908152602001600020600082015181600001556020820151816001015560408201518160020160006101000a81548160ff02191690831515021790555060608201518160020160016101000a81548160ff0219169083151502179055509050507f675e9cd1ef5a9bb6971c9f1099eced3c6607be0407bc871bc50a8a7b36832e748383604051610a16929190611361565b60405180910390a1505050565b60008054906101000a900473ffffffffffffffffffffffffffffffffffffffff1673ffffffffffffffffffffffffffffffffffffffff163373ffffffffffffffffffffffffffffffffffffffff1614610ab1576040517f08c379a0000000000000000000000000000000000000000000000000000000008152600401610aa8906111ad565b60405180910390fd5b565b610abb610ca1565b6003600083815260200190815260200160002060405180608001604052908160008201548152602001600182015481526020016002820160009054906101000a900460ff161515151581526020016002820160019054906101000a900460ff1615151515815250509050919050565b610b32610ccd565b600260008381526020019081526020016000206040518060c0016040529081600082015481526020016001820160009054906101000a900473ffffffffffffffffffffffffffffffffffffffff1673ffffffffffffffffffffffffffffffffffffffff1673ffffffffffffffffffffffffffffffffffffffff16815260200160028201548152602001600382015481526020016004820160009054906101000a900460ff161515151581526020016004820160019054906101000a900460ff1615151515815250509050919050565b60026020528060005260406000206000915090508060000154908060010160009054906101000a900473ffffffffffffffffffffffffffffffffffffffff16908060020154908060030154908060040160009054906101000a900460ff16908060040160019054906101000a900460ff16905086565b60008054906101000a900473ffffffffffffffffffffffffffffffffffffffff1681565b60015481565b604051806080016040528060008152602001600081526020016000151581526020016000151581525090565b6040518060c0016040528060008152602001600073ffffffffffffffffffffffffffffffffffffffff16815260200160008152602001600081526020016000151581526020016000151581525090565b600080fd5b600073ffffffffffffffffffffffffffffffffffffffff82169050919050565b6000610d4d82610d22565b9050919050565b610d5d81610d42565b8114610d6857600080fd5b50565b600081359050610d7a81610d54565b92915050565b6000819050919050565b610d9381610d80565b8114610d9e57600080fd5b50565b600081359050610db081610d8a565b92915050565b600080600060608486031215610dcf57610dce610d1d565b5b6000610ddd86828701610d6b565b9350506020610dee86828701610da1565b9250506040610dff86828701610da1565b9150509250925092565b60008115159050919050565b610e1e81610e09565b8114610e2957600080fd5b50565b600081359050610e3b81610e15565b92915050565b60008060408385031215610e5857610e57610d1d565b5b6000610e6685828601610da1565b9250506020610e7785828601610e2c565b9150509250929050565b600060208284031215610e9757610e96610d1d565b5b6000610ea584828501610da1565b91505092915050565b610eb781610d80565b82525050565b610ec681610e09565b82525050565b6000608082019050610ee16000830187610eae565b610eee6020830186610eae565b610efb6040830185610ebd565b610f086060830184610ebd565b95945050505050565b60008060408385031215610f2857610f27610d1d565b5b6000610f3685828601610da1565b9250506020610f4785828601610da1565b9150509250929050565b610f5a81610d80565b82525050565b610f6981610e09565b82525050565b608082016000820151610f856000850182610f51565b506020820151610f986020850182610f51565b506040820151610fab6040850182610f60565b506060820151610fbe6060850182610f60565b50505050565b6000608082019050610fd96000830184610f6f565b92915050565b610fe881610d42565b82525050565b60c0820160008201516110046000850182610f51565b5060208201516110176020850182610fdf565b50604082015161102a6040850182610f51565b50606082015161103d6060850182610f51565b5060808201516110506080850182610f60565b5060a082015161106360a0850182610f60565b50505050565b600060c08201905061107e6000830184610fee565b92915050565b61108d81610d42565b82525050565b600060c0820190506110a86000830189610eae565b6110b56020830188611084565b6110c26040830187610eae565b6110cf6060830186610eae565b6110dc6080830185610ebd565b6110e960a0830184610ebd565b979650505050505050565b60006020820190506111096000830184611084565b92915050565b60006020820190506111246000830184610eae565b92915050565b600082825260208201905092915050565b7f4f6e6c792074686520696e73757265722063616e20706572666f726d2074686960008201527f7320616374696f6e000000000000000000000000000000000000000000000000602082015250565b600061119760288361112a565b91506111a28261113b565b604082019050919050565b600060208201905081810360008301526111c68161118a565b9050919050565b7f4e487b7100000000000000000000000000000000000000000000000000000000600052601160045260246000fd5b600061120782610d80565b91507fffffffffffffffffffffffffffffffffffffffffffffffffffffffffffffffff8203611239576112386111cd565b5b600182019050919050565b60006080820190506112596000830187610eae565b6112666020830186611084565b6112736040830185610eae565b6112806060830184610eae565b95945050505050565b7f436c61696d20616c726561647920617373657373656400000000000000000000600082015250565b60006112bf60168361112a565b91506112ca82611289565b602082019050919050565b600060208201905081810360008301526112ee816112b2565b9050919050565b7f506f6c696379206973206e6f7420616374697665000000000000000000000000600082015250565b600061132b60148361112a565b9150611336826112f5565b602082019050919050565b6000602082019050818103600083015261135a8161131e565b9050919050565b60006040820190506113766000830185610eae565b6113836020830184610eae565b9392505050565b7f4f6e6c792074686520706f6c69637920686f6c6465722063616e20706572666f60008201527f726d207468697320616374696f6e000000000000000000000000000000000000602082015250565b60006113e6602e8361112a565b91506113f18261138a565b604082019050919050565b60006020820190508181036000830152611415816113d9565b9050919050565b7f436c61696d20616c7265616479207375626d6974746564000000000000000000600082015250565b600061145260178361112a565b915061145d8261141c565b602082019050919050565b6000602082019050818103600083015261148181611445565b905091905056fea264697066735822122044f4da23f9a06b7cd560b8f19578e1ba6cf443a249020a55f5756b4051eca9e064736f6c63430008130033",
  "immutableReferences": {},
  "source": "// SPDX-License-Identifier: MIT\r\npragma solidity ^0.8.0;\r\n\r\ncontract SmartInsurance {\r\n    address public insurer;\r\n    uint256 public policyCount = 0;\r\n\r\n    struct Policy {\r\n        uint256 policyId;\r\n        address policyHolder;\r\n        uint256 premium;\r\n        uint256 payout;\r\n        bool isActive;\r\n        bool isClaimed;\r\n    }\r\n\r\n    struct DamageAssessment {\r\n        uint256 policyId;\r\n        uint256 damageAmount;\r\n        bool isAssessed;\r\n        bool isApproved;\r\n    }\r\n\r\n    mapping(uint256 => Policy) public policies;\r\n    mapping(uint256 => DamageAssessment) public assessments;\r\n\r\n    event PolicyCreated(uint256 policyId, address policyHolder, uint256 premium, uint256 payout);\r\n    event ClaimSubmitted(uint256 policyId, uint256 damageAmount);\r\n    event ClaimApproved(uint256 policyId, uint256 payoutAmount);\r\n    event ClaimRejected(uint256 policyId);\r\n\r\n    modifier onlyInsurer() {\r\n        require(msg.sender == insurer, \"Only the insurer can perform this action\");\r\n        _;\r\n    }\r\n\r\n    modifier onlyPolicyHolder(uint256 _policyId) {\r\n        require(msg.sender == policies[_policyId].policyHolder, \"Only the policy holder can perform this action\");\r\n        _;\r\n    }\r\n\r\n    constructor() {\r\n        insurer = msg.sender;\r\n    }\r\n\r\n    function createPolicy(address _policyHolder, uint256 _premium, uint256 _payout) public onlyInsurer {\r\n        policyCount++;\r\n        policies[policyCount] = Policy(policyCount, _policyHolder, _premium, _payout, true, false);\r\n        emit PolicyCreated(policyCount, _policyHolder, _premium, _payout);\r\n    }\r\n\r\n    function submitClaim(uint256 _policyId, uint256 _damageAmount) public onlyPolicyHolder(_policyId) {\r\n        require(policies[_policyId].isActive, \"Policy is not active\");\r\n        require(!policies[_policyId].isClaimed, \"Claim already submitted\");\r\n\r\n        assessments[_policyId] = DamageAssessment(_policyId, _damageAmount, false, false);\r\n        emit ClaimSubmitted(_policyId, _damageAmount);\r\n    }\r\n\r\n    function assessClaim(uint256 _policyId, bool _isApproved) public onlyInsurer {\r\n        require(assessments[_policyId].isAssessed == false, \"Claim already assessed\");\r\n        require(policies[_policyId].isActive, \"Policy is not active\");\r\n\r\n        assessments[_policyId].isAssessed = true;\r\n        assessments[_policyId].isApproved = _isApproved;\r\n\r\n        if (_isApproved) {\r\n            policies[_policyId].isClaimed = true;\r\n            policies[_policyId].isActive = false;\r\n            payable(policies[_policyId].policyHolder).transfer(policies[_policyId].payout);\r\n            emit ClaimApproved(_policyId, policies[_policyId].payout);\r\n        } else {\r\n            emit ClaimRejected(_policyId);\r\n        }\r\n    }\r\n\r\n    function fundContract() public payable onlyInsurer {}\r\n\r\n    function getPolicyDetails(uint256 _policyId) public view returns (Policy memory) {\r\n        return policies[_policyId];\r\n    }\r\n\r\n    function getAssessmentDetails(uint256 _policyId) public view returns (DamageAssessment memory) {\r\n        return assessments[_policyId];\r\n    }\r\n}\r\n",
  "sourcePath": "D:\\Project_Test\\web\\contracts\\SmartInsurance.sol",
  "compiler": {
    "name": "solc",
    "version": "0.8.19+commit.7dd6d404.Emscripten.clang"
  },
  "schemaVersion": "3.4.16",
  "updatedAt": "2024-05-26T09:48:39.361Z",
  "networkType": "ethereum",
  "devdoc": {
    "kind": "dev",
    "methods": {},
    "version": 1
  },
  "userdoc": {
    "kind": "user",
    "methods": {},
    "version": 1
  }
}